{
  "transactions": [
    {
      "hash": "0xcdd0bf58144ca53f86172a5253267a6042c0a4c1ffd6994fd2883d0ed83234e0",
      "transactionType": "CREATE",
      "contractName": "MockVelodromeFactory",
      "contractAddress": "0xc28240056c0318258946729dffb7d072eba375ec",
      "function": null,
      "arguments": null,
      "transaction": {
        "from": "0xdb90cdb64cff03f254e4015c4f705c3f3c834400",
        "gas": "0x168ad6",
        "value": "0x0",
        "input": "0x60a0604052348015600e575f5ffd5b506040516019906042565b604051809103905ff0801580156031573d5f5f3e3d5ffd5b506001600160a01b0316608052604f565b610e148061056383390190565b6080516104fc6100675f395f61023001526104fc5ff3fe608060405234801561000f575f5ffd5b506004361061004a575f3560e01c806336bf95a01461004e5780635b16ebb71461007e57806379bc57d5146100b0578063cc56b2c5146100e8575b5f5ffd5b61006161005c36600461043c565b61010f565b6040516001600160a01b0390911681526020015b60405180910390f35b6100a061008c36600461047c565b60016020525f908152604090205460ff1681565b6040519015158152602001610075565b6100616100be36600461043c565b5f60208181529381526040808220855292815282812090935282529020546001600160a01b031681565b6100fb6100f6366004610495565b610359565b60405162ffffff9091168152602001610075565b5f826001600160a01b0316846001600160a01b0316036101425760405163367558c360e01b815260040160405180910390fd5b5f5f846001600160a01b0316866001600160a01b031610610164578486610167565b85855b90925090506001600160a01b0382166101935760405163d92e233d60e01b815260040160405180910390fd5b6001600160a01b038281165f9081526020818152604080832085851684528252808320881515845290915290205416156101e057604051630188c99160e11b815260040160405180910390fd5b6040516bffffffffffffffffffffffff19606084811b8216602084015283901b16603482015284151560f81b604882015261026690604901604051602081830303815290604052805190602001207f00000000000000000000000000000000000000000000000000000000000000006001600160a01b031661037390919063ffffffff16565b604051631c9776b560e31b81526001600160a01b038481166004830152838116602483015286151560448301529194509084169063e4bbb5a8906064015f604051808303815f87803b1580156102ba575f5ffd5b505af11580156102cc573d5f5f3e3d5ffd5b5050506001600160a01b039283165f8181526020818152604080832095871680845295825280832098151580845298825280832080549789166001600160a01b0319988916811790915595835282825280832093835292815282822097825296875281812080549095168417909455918352506001938490529020805460ff191690921790915592915050565b5f8161036657601e610369565b60055b60ff169392505050565b5f61037f5f8484610386565b9392505050565b5f6040517fcc3735a920a3ca505d382bbc545af43d6000803e6038573d6000fd5b3d6000f36060527f5155f3363d3d373d3d363d7f360894a13ba1a3210667c828492db98dca3e207660405261600960205283601e5268603d3d8160223d3973600a5282605f602187f59150816104045763301164255f526004601cfd5b6040525f6060529392505050565b80356001600160a01b0381168114610428575f5ffd5b919050565b80358015158114610428575f5ffd5b5f5f5f6060848603121561044e575f5ffd5b61045784610412565b925061046560208501610412565b91506104736040850161042d565b90509250925092565b5f6020828403121561048c575f5ffd5b61037f82610412565b5f5f604083850312156104a6575f5ffd5b6104af83610412565b91506104bd6020840161042d565b9050925092905056fea2646970667358221220de3b3559a0d4313baa6e406afbb7064a4cf6523df4a4ee006a1aa5e7b5544d0a64736f6c634300081c00336080604052348015600e575f5ffd5b50610df88061001c5f395ff3fe608060405234801561000f575f5ffd5b50600436106100a6575f3560e01c8063443cb4bc1161006e578063443cb4bc1461013f5780635a76f25e14610156578063c45a01551461015f578063c5700a0214610171578063d21220a71461017a578063e4bbb5a81461018d575f5ffd5b8063022c0d9f146100aa5780630902f1ac146100bf5780630dfe1681146100e8578063181783581461011357806322be3de11461011b575b5f5ffd5b6100bd6100b8366004610ae0565b6101a0565b005b600354600454600554604080519384526020840192909252908201526060015b60405180910390f35b6001546100fb906001600160a01b031681565b6040516001600160a01b0390911681526020016100df565b6100bd6106eb565b60025461012f90600160a01b900460ff1681565b60405190151581526020016100df565b61014860035481565b6040519081526020016100df565b61014860045481565b5f546100fb906001600160a01b031681565b61014860055481565b6002546100fb906001600160a01b031681565b6100bd61019b366004610b6e565b6107cb565b841580156101ac575083155b156101ca576040516342301c2360e01b815260040160405180910390fd5b60035460045481871015806101df5750808610155b156101fd5760405163bb55fd2760e01b815260040160405180910390fd5b6001546002545f9182916001600160a01b03918216919081169089168214806102375750806001600160a01b0316896001600160a01b0316145b1561025557604051630521f43160e31b815260040160405180910390fd5b8a1561026f5761026f6001600160a01b0383168a8d6108fb565b8915610289576102896001600160a01b0382168a8c6108fb565b86156102f157604051639a7bff7960e01b81526001600160a01b038a1690639a7bff79906102c39033908f908f908e908e90600401610bb6565b5f604051808303815f87803b1580156102da575f5ffd5b505af11580156102ec573d5f5f3e3d5ffd5b505050505b6040516370a0823160e01b81523060048201526001600160a01b038316906370a0823190602401602060405180830381865afa158015610333573d5f5f3e3d5ffd5b505050506040513d601f19601f820116820180604052508101906103579190610c01565b6040516370a0823160e01b81523060048201529094506001600160a01b038216906370a0823190602401602060405180830381865afa15801561039c573d5f5f3e3d5ffd5b505050506040513d601f19601f820116820180604052508101906103c09190610c01565b925050505f89856103d19190610c2c565b83116103dd575f6103f1565b6103e78a86610c2c565b6103f19084610c2c565b90505f6103fe8a86610c2c565b831161040a575f61041e565b6104148a86610c2c565b61041e9084610c2c565b90508115801561042c575080155b1561044a5760405163098fb56160e01b815260040160405180910390fd5b6001546002546001600160a01b0391821691168315610515575f5460025460405163cc56b2c560e01b8152306004820152600160a01b90910460ff1615156024820152610515916001600160a01b03169061271090829063cc56b2c590604401602060405180830381865afa1580156104c5573d5f5f3e3d5ffd5b505050506040513d601f19601f820116820180604052508101906104e99190610c3f565b6104f89062ffffff1688610c68565b6105029190610c7f565b6001546001600160a01b031691906108fb565b82156105cd575f5460025460405163cc56b2c560e01b8152306004820152600160a01b90910460ff16151560248201526105cd916001600160a01b03169061271090829063cc56b2c590604401602060405180830381865afa15801561057d573d5f5f3e3d5ffd5b505050506040513d601f19601f820116820180604052508101906105a19190610c3f565b6105b09062ffffff1687610c68565b6105ba9190610c7f565b6002546001600160a01b031691906108fb565b6040516370a0823160e01b81523060048201526001600160a01b038316906370a0823190602401602060405180830381865afa15801561060f573d5f5f3e3d5ffd5b505050506040513d601f19601f820116820180604052508101906106339190610c01565b6040516370a0823160e01b81523060048201529096506001600160a01b038216906370a0823190602401602060405180830381865afa158015610678573d5f5f3e3d5ffd5b505050506040513d601f19601f8201168201806040525081019061069c9190610c01565b94506106a88888610952565b6106b28787610952565b10156106d15760405163a932492f60e01b815260040160405180910390fd5b505050600392909255600455505042600555505050505050565b6001546040516370a0823160e01b81523060048201526001600160a01b03909116906370a0823190602401602060405180830381865afa158015610731573d5f5f3e3d5ffd5b505050506040513d601f19601f820116820180604052508101906107559190610c01565b6003556002546040516370a0823160e01b81523060048201526001600160a01b03909116906370a0823190602401602060405180830381865afa15801561079e573d5f5f3e3d5ffd5b505050506040513d601f19601f820116820180604052508101906107c29190610c01565b60045542600555565b600280546001600160a01b038085166001600160a01b0319851515600160a01b0281166001600160a81b0319909416939093171790925560018054928616928216831790555f8054909116331790556040805163313ce56760e01b8152905163313ce567916004808201926020929091908290030181865afa158015610853573d5f5f3e3d5ffd5b505050506040513d601f19601f820116820180604052508101906108779190610c9e565b61088290600a610da1565b600681905550816001600160a01b031663313ce5676040518163ffffffff1660e01b8152600401602060405180830381865afa1580156108c4573d5f5f3e3d5ffd5b505050506040513d601f19601f820116820180604052508101906108e89190610c9e565b6108f390600a610da1565b600755505050565b604080516001600160a01b038416602482015260448082018490528251808303909101815260649091019091526020810180516001600160e01b031663a9059cbb60e01b17905261094d908490610a4f565b505050565b6002545f90600160a01b900460ff1615610a3c576006545f9061097d85670de0b6b3a7640000610c68565b6109879190610c7f565b90505f60075484670de0b6b3a76400006109a19190610c68565b6109ab9190610c7f565b90505f670de0b6b3a76400006109c18385610c68565b6109cb9190610c7f565b90505f670de0b6b3a76400006109e18480610c68565b6109eb9190610c7f565b670de0b6b3a76400006109fe8680610c68565b610a089190610c7f565b610a129190610daf565b9050670de0b6b3a7640000610a278284610c68565b610a319190610c7f565b945050505050610a49565b610a468284610c68565b90505b92915050565b5f5f60205f8451602086015f885af180610a6e576040513d5f823e3d81fd5b50505f513d91508115610a85578060011415610a92565b6001600160a01b0384163b155b15610abf57604051635274afe760e01b81526001600160a01b038516600482015260240160405180910390fd5b50505050565b80356001600160a01b0381168114610adb575f5ffd5b919050565b5f5f5f5f5f60808688031215610af4575f5ffd5b8535945060208601359350610b0b60408701610ac5565b9250606086013567ffffffffffffffff811115610b26575f5ffd5b8601601f81018813610b36575f5ffd5b803567ffffffffffffffff811115610b4c575f5ffd5b886020828401011115610b5d575f5ffd5b959894975092955050506020019190565b5f5f5f60608486031215610b80575f5ffd5b610b8984610ac5565b9250610b9760208501610ac5565b915060408401358015158114610bab575f5ffd5b809150509250925092565b60018060a01b038616815284602082015283604082015260806060820152816080820152818360a08301375f81830160a090810191909152601f909201601f19160101949350505050565b5f60208284031215610c11575f5ffd5b5051919050565b634e487b7160e01b5f52601160045260245ffd5b81810381811115610a4957610a49610c18565b5f60208284031215610c4f575f5ffd5b815162ffffff81168114610c61575f5ffd5b9392505050565b8082028115828204841417610a4957610a49610c18565b5f82610c9957634e487b7160e01b5f52601260045260245ffd5b500490565b5f60208284031215610cae575f5ffd5b815160ff81168114610c61575f5ffd5b6001815b6001841115610cf957808504811115610cdd57610cdd610c18565b6001841615610ceb57908102905b60019390931c928002610cc2565b935093915050565b5f82610d0f57506001610a49565b81610d1b57505f610a49565b8160018114610d315760028114610d3b57610d57565b6001915050610a49565b60ff841115610d4c57610d4c610c18565b50506001821b610a49565b5060208310610133831016604e8410600b8410161715610d7a575081810a610a49565b610d865f198484610cbe565b805f1904821115610d9957610d99610c18565b029392505050565b5f610c6160ff841683610d01565b80820180821115610a4957610a49610c1856fea2646970667358221220dd9c726058f917f3c431b62a4e4205034f1bc5e7af5becabbd5773e95ff01f6364736f6c634300081c0033",
        "nonce": "0x296",
        "chainId": "0xaa37dc"
      },
      "additionalContracts": [],
      "isFixedGasLimit": false
    },
    {
      "hash": "0x3406f0a49c40e053a44a903a84b3e2f2ed3c97a060a7469a8c84789107fc3220",
      "transactionType": "CREATE",
      "contractName": "MockSwapper",
      "contractAddress": "0x7af28c94757628378e625ad8b6f51f2ac1391eda",
      "function": null,
      "arguments": [
        "0xc28240056c0318258946729DFFb7D072eBA375ec"
      ],
      "transaction": {
        "from": "0xdb90cdb64cff03f254e4015c4f705c3f3c834400",
        "gas": "0xe8ac3",
        "value": "0x0",
        "input": "0x60a060405234801561000f575f5ffd5b50604051610d03380380610d0383398101604081905261002e9161003f565b6001600160a01b031660805261006c565b5f6020828403121561004f575f5ffd5b81516001600160a01b0381168114610065575f5ffd5b9392505050565b608051610c496100ba5f395f8181605e0152818160fb015281816101b201528181610312015281816103c9015281816104f5015281816105ac0152818161064601526106fd0152610c495ff3fe608060405234801561000f575f5ffd5b5060043610610055575f3560e01c80633e8c6e431461005957806358f030aa1461009d5780636278c379146100be578063a287c795146100d1578063ff9c8ac6146100e4575b5f5ffd5b6100807f000000000000000000000000000000000000000000000000000000000000000081565b6040516001600160a01b0390911681526020015b60405180910390f35b6100b06100ab366004610a86565b6100f7565b604051908152602001610094565b6100b06100cc366004610a86565b61030e565b6100b06100df366004610acb565b6104f1565b6100b06100f2366004610acb565b610642565b5f5f7f00000000000000000000000000000000000000000000000000000000000000006001600160a01b03166379bc57d587865f6040518463ffffffff1660e01b815260040161014993929190610b0a565b602060405180830381865afa158015610164573d5f5f3e3d5ffd5b505050506040513d601f19601f820116820180604052508101906101889190610b2e565b60405163cc56b2c560e01b81526001600160a01b0380831660048301525f602483018190529293507f0000000000000000000000000000000000000000000000000000000000000000169063cc56b2c590604401602060405180830381865afa1580156101f7573d5f5f3e3d5ffd5b505050506040513d601f19601f8201168201806040525081019061021b9190610b50565b90506001600160a01b038088169086161161023d83888362ffffff8616610784565b935084841015610260576040516342301c2360e01b815260040160405180910390fd5b6102756001600160a01b03891633858a6108a2565b826001600160a01b031663022c0d9f8261028f5785610291565b5f5b8361029c575f61029e565b865b6040516001600160e01b031960e085901b16815260048101929092526024820152336044820152608060648201525f608482015260a4015b5f604051808303815f87803b1580156102ed575f5ffd5b505af11580156102ff573d5f5f3e3d5ffd5b50505050505050949350505050565b5f5f7f00000000000000000000000000000000000000000000000000000000000000006001600160a01b03166379bc57d587865f6040518463ffffffff1660e01b815260040161036093929190610b0a565b602060405180830381865afa15801561037b573d5f5f3e3d5ffd5b505050506040513d601f19601f8201168201806040525081019061039f9190610b2e565b60405163cc56b2c560e01b81526001600160a01b0380831660048301525f602483018190529293507f0000000000000000000000000000000000000000000000000000000000000000169063cc56b2c590604401602060405180830381865afa15801561040e573d5f5f3e3d5ffd5b505050506040513d601f19601f820116820180604052508101906104329190610b50565b90506001600160a01b038088169086161161045483868362ffffff8616610902565b9350868411156104775760405163098fb56160e01b815260040160405180910390fd5b61048c6001600160a01b0389163385876108a2565b826001600160a01b031663022c0d9f826104a657866104a8565b5f5b836104b3575f61029e565b6040516001600160e01b031960e084901b168152600481019190915260248101889052336044820152608060648201525f608482015260a4016102d6565b5f5f7f00000000000000000000000000000000000000000000000000000000000000006001600160a01b03166379bc57d586855f6040518463ffffffff1660e01b815260040161054393929190610b0a565b602060405180830381865afa15801561055e573d5f5f3e3d5ffd5b505050506040513d601f19601f820116820180604052508101906105829190610b2e565b60405163cc56b2c560e01b81526001600160a01b0380831660048301525f602483018190529293507f0000000000000000000000000000000000000000000000000000000000000000169063cc56b2c590604401602060405180830381865afa1580156105f1573d5f5f3e3d5ffd5b505050506040513d601f19601f820116820180604052508101906106159190610b50565b90506001600160a01b038087169085161161063783878362ffffff8616610902565b979650505050505050565b5f5f7f00000000000000000000000000000000000000000000000000000000000000006001600160a01b03166379bc57d586855f6040518463ffffffff1660e01b815260040161069493929190610b0a565b602060405180830381865afa1580156106af573d5f5f3e3d5ffd5b505050506040513d601f19601f820116820180604052508101906106d39190610b2e565b60405163cc56b2c560e01b81526001600160a01b0380831660048301525f602483018190529293507f0000000000000000000000000000000000000000000000000000000000000000169063cc56b2c590604401602060405180830381865afa158015610742573d5f5f3e3d5ffd5b505050506040513d601f19601f820116820180604052508101906107669190610b50565b90506001600160a01b038087169085161161063783878362ffffff86165b5f5f5f866001600160a01b0316630902f1ac6040518163ffffffff1660e01b8152600401606060405180830381865afa1580156107c3573d5f5f3e3d5ffd5b505050506040513d601f19601f820116820180604052508101906107e79190610b72565b50915091508461084c576107fd84612710610bb1565b6108079087610bca565b61081382612710610bca565b61081d9190610be1565b61082985612710610bb1565b6108338885610bca565b61083d9190610bca565b6108479190610bf4565b610637565b61085884612710610bb1565b6108629087610bca565b61086e83612710610bca565b6108789190610be1565b61088485612710610bb1565b61088e8884610bca565b6108989190610bca565b6106379190610bf4565b604080516001600160a01b0385811660248301528416604482015260648082018490528251808303909101815260849091019091526020810180516001600160e01b03166323b872dd60e01b1790526108fc9085906109ff565b50505050565b5f5f5f866001600160a01b0316630902f1ac6040518163ffffffff1660e01b8152600401606060405180830381865afa158015610941573d5f5f3e3d5ffd5b505050506040513d601f19601f820116820180604052508101906109659190610b72565b5091509150846109b45761097b84612710610bb1565b6109858784610bb1565b61098f9190610bca565b6109998783610bca565b6109a590612710610bca565b6109af9190610bf4565b6109f4565b6109c084612710610bb1565b6109ca8783610bb1565b6109d49190610bca565b6109de8784610bca565b6109ea90612710610bca565b6109f49190610bf4565b610637906001610be1565b5f5f60205f8451602086015f885af180610a1e576040513d5f823e3d81fd5b50505f513d91508115610a35578060011415610a42565b6001600160a01b0384163b155b156108fc57604051635274afe760e01b81526001600160a01b038516600482015260240160405180910390fd5b6001600160a01b0381168114610a83575f5ffd5b50565b5f5f5f5f60808587031215610a99575f5ffd5b8435610aa481610a6f565b9350602085013592506040850135610abb81610a6f565b9396929550929360600135925050565b5f5f5f60608486031215610add575f5ffd5b8335610ae881610a6f565b9250602084013591506040840135610aff81610a6f565b809150509250925092565b6001600160a01b039384168152919092166020820152901515604082015260600190565b5f60208284031215610b3e575f5ffd5b8151610b4981610a6f565b9392505050565b5f60208284031215610b60575f5ffd5b815162ffffff81168114610b49575f5ffd5b5f5f5f60608486031215610b84575f5ffd5b5050815160208301516040909301519094929350919050565b634e487b7160e01b5f52601160045260245ffd5b81810381811115610bc457610bc4610b9d565b92915050565b8082028115828204841417610bc457610bc4610b9d565b80820180821115610bc457610bc4610b9d565b5f82610c0e57634e487b7160e01b5f52601260045260245ffd5b50049056fea2646970667358221220f3ddb4b6a30d3e7cb9e81c6ddedc34f376f3fb0896d4301483fb830af2e0ae9a64736f6c634300081c0033000000000000000000000000c28240056c0318258946729dffb7d072eba375ec",
        "nonce": "0x297",
        "chainId": "0xaa37dc"
      },
      "additionalContracts": [],
      "isFixedGasLimit": false
    },
    {
      "hash": "0x3ab4ad2f871d2c87dd2a9ebbbe358753562d7c7fadaf8b7320b72c9a8ba815a0",
      "transactionType": "CALL",
      "contractName": "MockVelodromeFactory",
      "contractAddress": "0xc28240056c0318258946729dffb7d072eba375ec",
      "function": "createPool(address,address,bool)",
      "arguments": [
        "0x2fB5672a2736946201E6343c799A553c83f38c7F",
        "0xb2e4e4B2004208dC1B30208d5B6FaB2b780DC290",
        "false"
      ],
      "transaction": {
        "from": "0xdb90cdb64cff03f254e4015c4f705c3f3c834400",
        "to": "0xc28240056c0318258946729dffb7d072eba375ec",
        "gas": "0x5dc56",
        "value": "0x0",
        "input": "0x36bf95a00000000000000000000000002fb5672a2736946201e6343c799a553c83f38c7f000000000000000000000000b2e4e4b2004208dc1b30208d5b6fab2b780dc2900000000000000000000000000000000000000000000000000000000000000000",
        "nonce": "0x298",
        "chainId": "0xaa37dc"
      },
      "additionalContracts": [],
      "isFixedGasLimit": false
    },
    {
      "hash": "0x2699df301ade4ffd5d22cfac7d93fba3935bd409fc079e0a88dccc3075f5d572",
      "transactionType": "CALL",
      "contractName": null,
      "contractAddress": "0x2fb5672a2736946201e6343c799a553c83f38c7f",
      "function": "mint(address,uint256)",
      "arguments": [
        "0x56fb2D93DF98853db9Cc886a3f8D436ba81bE983",
        "272098100289972224498"
      ],
      "transaction": {
        "from": "0xdb90cdb64cff03f254e4015c4f705c3f3c834400",
        "to": "0x2fb5672a2736946201e6343c799a553c83f38c7f",
        "gas": "0x124d5",
        "value": "0x0",
        "input": "0x40c10f1900000000000000000000000056fb2d93df98853db9cc886a3f8d436ba81be98300000000000000000000000000000000000000000000000ec01ea493826841f2",
        "nonce": "0x299",
        "chainId": "0xaa37dc"
      },
      "additionalContracts": [],
      "isFixedGasLimit": false
    },
    {
      "hash": "0xd78f62c8a8682ae4c7a001d090ca29f1f9caf7fe196d08e0487d5f2b9cdb0605",
      "transactionType": "CALL",
      "contractName": null,
      "contractAddress": "0xb2e4e4b2004208dc1b30208d5b6fab2b780dc290",
      "function": "mint(address,uint256)",
      "arguments": [
        "0x56fb2D93DF98853db9Cc886a3f8D436ba81bE983",
        "1000000000000"
      ],
      "transaction": {
        "from": "0xdb90cdb64cff03f254e4015c4f705c3f3c834400",
        "to": "0xb2e4e4b2004208dc1b30208d5b6fab2b780dc290",
        "gas": "0x1143d",
        "value": "0x0",
        "input": "0x40c10f1900000000000000000000000056fb2d93df98853db9cc886a3f8d436ba81be983000000000000000000000000000000000000000000000000000000e8d4a51000",
        "nonce": "0x29a",
        "chainId": "0xaa37dc"
      },
      "additionalContracts": [],
      "isFixedGasLimit": false
    },
    {
      "hash": "0xdb237cd3ac4c0bcb847ffaa79c716240022aaec433ac19b37ba139f692e8fee7",
      "transactionType": "CALL",
      "contractName": null,
      "contractAddress": "0x56fb2d93df98853db9cc886a3f8d436ba81be983",
      "function": "poke()",
      "arguments": [],
      "transaction": {
        "from": "0xdb90cdb64cff03f254e4015c4f705c3f3c834400",
        "to": "0x56fb2d93df98853db9cc886a3f8d436ba81be983",
        "gas": "0x24340",
        "value": "0x0",
        "input": "0x18178358",
        "nonce": "0x29b",
        "chainId": "0xaa37dc"
      },
      "additionalContracts": [],
      "isFixedGasLimit": false
    },
    {
      "hash": "0xb9bf3957e97c8f7c50cdf24590a7870b0b0e8d353d18fad3d415892576ddfd48",
      "transactionType": "CALL",
      "contractName": "MockVelodromeFactory",
      "contractAddress": "0xc28240056c0318258946729dffb7d072eba375ec",
      "function": "createPool(address,address,bool)",
      "arguments": [
        "0x91A2d012cd88f0D17078D221b0F36AF7a2e45602",
        "0xb2e4e4B2004208dC1B30208d5B6FaB2b780DC290",
        "false"
      ],
      "transaction": {
        "from": "0xdb90cdb64cff03f254e4015c4f705c3f3c834400",
        "to": "0xc28240056c0318258946729dffb7d072eba375ec",
        "gas": "0x5dc56",
        "value": "0x0",
        "input": "0x36bf95a000000000000000000000000091a2d012cd88f0d17078d221b0f36af7a2e45602000000000000000000000000b2e4e4b2004208dc1b30208d5b6fab2b780dc2900000000000000000000000000000000000000000000000000000000000000000",
        "nonce": "0x29c",
        "chainId": "0xaa37dc"
      },
      "additionalContracts": [],
      "isFixedGasLimit": false
    },
    {
      "hash": "0x50714920695779fc6714d76de46080a950f5cc2b38a1c3a5d78bbdd2befd867d",
      "transactionType": "CALL",
      "contractName": null,
      "contractAddress": "0x91a2d012cd88f0d17078d221b0f36af7a2e45602",
      "function": "mint(address,uint256)",
      "arguments": [
        "0xE03aE28B39349E11981f20af0074dC20872abedb",
        "1000187135012960924989065"
      ],
      "transaction": {
        "from": "0xdb90cdb64cff03f254e4015c4f705c3f3c834400",
        "to": "0x91a2d012cd88f0d17078d221b0f36af7a2e45602",
        "gas": "0x124d5",
        "value": "0x0",
        "input": "0x40c10f19000000000000000000000000e03ae28b39349e11981f20af0074dc20872abedb00000000000000000000000000000000000000000000d3cc40d3ebbb7f0df689",
        "nonce": "0x29d",
        "chainId": "0xaa37dc"
      },
      "additionalContracts": [],
      "isFixedGasLimit": false
    },
    {
      "hash": "0x67840e247cdb7b0cc4f750558d113583561247bc5121c8f9778510177352275b",
      "transactionType": "CALL",
      "contractName": null,
      "contractAddress": "0xb2e4e4b2004208dc1b30208d5b6fab2b780dc290",
      "function": "mint(address,uint256)",
      "arguments": [
        "0xE03aE28B39349E11981f20af0074dC20872abedb",
        "1000000000000"
      ],
      "transaction": {
        "from": "0xdb90cdb64cff03f254e4015c4f705c3f3c834400",
        "to": "0xb2e4e4b2004208dc1b30208d5b6fab2b780dc290",
        "gas": "0x1246c",
        "value": "0x0",
        "input": "0x40c10f19000000000000000000000000e03ae28b39349e11981f20af0074dc20872abedb000000000000000000000000000000000000000000000000000000e8d4a51000",
        "nonce": "0x29e",
        "chainId": "0xaa37dc"
      },
      "additionalContracts": [],
      "isFixedGasLimit": false
    },
    {
      "hash": "0x136d15b6c6a5f346f198694f0662ff9d8887a46a7db33d3380ccbaf9bb526b66",
      "transactionType": "CALL",
      "contractName": null,
      "contractAddress": "0xe03ae28b39349e11981f20af0074dc20872abedb",
      "function": "poke()",
      "arguments": [],
      "transaction": {
        "from": "0xdb90cdb64cff03f254e4015c4f705c3f3c834400",
        "to": "0xe03ae28b39349e11981f20af0074dc20872abedb",
        "gas": "0x24340",
        "value": "0x0",
        "input": "0x18178358",
        "nonce": "0x29f",
        "chainId": "0xaa37dc"
      },
      "additionalContracts": [],
      "isFixedGasLimit": false
    },
    {
      "hash": "0x21d0afbf0651307525e82f490e871257f0680da0d575c3d52037dae426520547",
      "transactionType": "CALL",
      "contractName": "MockVelodromeFactory",
      "contractAddress": "0xc28240056c0318258946729dffb7d072eba375ec",
      "function": "createPool(address,address,bool)",
      "arguments": [
        "0x531784fd9aBa26c965de4423D331de8d89cD6ab3",
        "0xb2e4e4B2004208dC1B30208d5B6FaB2b780DC290",
        "false"
      ],
      "transaction": {
        "from": "0xdb90cdb64cff03f254e4015c4f705c3f3c834400",
        "to": "0xc28240056c0318258946729dffb7d072eba375ec",
        "gas": "0x5dc56",
        "value": "0x0",
        "input": "0x36bf95a0000000000000000000000000531784fd9aba26c965de4423d331de8d89cd6ab3000000000000000000000000b2e4e4b2004208dc1b30208d5b6fab2b780dc2900000000000000000000000000000000000000000000000000000000000000000",
        "nonce": "0x2a0",
        "chainId": "0xaa37dc"
      },
      "additionalContracts": [],
      "isFixedGasLimit": false
    },
    {
      "hash": "0x5b79e3a08cd38c9add5aee075cac4902c9ff44cbb48eb3780d6f6cf75c0baaad",
      "transactionType": "CALL",
      "contractName": null,
      "contractAddress": "0x531784fd9aba26c965de4423d331de8d89cd6ab3",
      "function": "mint(address,uint256)",
      "arguments": [
        "0x1DB32BF3e713230CEed0Be02Bd837C4501bD80a5",
        "999992960049"
      ],
      "transaction": {
        "from": "0xdb90cdb64cff03f254e4015c4f705c3f3c834400",
        "to": "0x531784fd9aba26c965de4423d331de8d89cd6ab3",
        "gas": "0x1248f",
        "value": "0x0",
        "input": "0x40c10f190000000000000000000000001db32bf3e713230ceed0be02bd837c4501bd80a5000000000000000000000000000000000000000000000000000000e8d439a431",
        "nonce": "0x2a1",
        "chainId": "0xaa37dc"
      },
      "additionalContracts": [],
      "isFixedGasLimit": false
    },
    {
      "hash": "0x3456ca7d1d06a209fd085e40ce61a09d15cc0cd0565a2fa8266e1d761b15db2d",
      "transactionType": "CALL",
      "contractName": null,
      "contractAddress": "0xb2e4e4b2004208dc1b30208d5b6fab2b780dc290",
      "function": "mint(address,uint256)",
      "arguments": [
        "0x1DB32BF3e713230CEed0Be02Bd837C4501bD80a5",
        "1000000000000"
      ],
      "transaction": {
        "from": "0xdb90cdb64cff03f254e4015c4f705c3f3c834400",
        "to": "0xb2e4e4b2004208dc1b30208d5b6fab2b780dc290",
        "gas": "0x1143d",
        "value": "0x0",
        "input": "0x40c10f190000000000000000000000001db32bf3e713230ceed0be02bd837c4501bd80a5000000000000000000000000000000000000000000000000000000e8d4a51000",
        "nonce": "0x2a2",
        "chainId": "0xaa37dc"
      },
      "additionalContracts": [],
      "isFixedGasLimit": false
    },
    {
      "hash": "0x148e3dd63b2d4092d95d4dae07c3729853784f788d1f5869ba5d7015fb7c30a1",
      "transactionType": "CALL",
      "contractName": null,
      "contractAddress": "0x1db32bf3e713230ceed0be02bd837c4501bd80a5",
      "function": "poke()",
      "arguments": [],
      "transaction": {
        "from": "0xdb90cdb64cff03f254e4015c4f705c3f3c834400",
        "to": "0x1db32bf3e713230ceed0be02bd837c4501bd80a5",
        "gas": "0x24340",
        "value": "0x0",
        "input": "0x18178358",
        "nonce": "0x2a3",
        "chainId": "0xaa37dc"
      },
      "additionalContracts": [],
      "isFixedGasLimit": false
    },
    {
      "hash": "0xa744cd0098666ad1a74ae9182358b5d19a13f32cb331a9363c76dca5281b84ba",
      "transactionType": "CALL",
      "contractName": "MockVelodromeFactory",
      "contractAddress": "0xc28240056c0318258946729dffb7d072eba375ec",
      "function": "createPool(address,address,bool)",
      "arguments": [
        "0x44bE3dCba56171159d8672f768df707E5d2Eeaa1",
        "0xb2e4e4B2004208dC1B30208d5B6FaB2b780DC290",
        "false"
      ],
      "transaction": {
        "from": "0xdb90cdb64cff03f254e4015c4f705c3f3c834400",
        "to": "0xc28240056c0318258946729dffb7d072eba375ec",
        "gas": "0x5dc56",
        "value": "0x0",
        "input": "0x36bf95a000000000000000000000000044be3dcba56171159d8672f768df707e5d2eeaa1000000000000000000000000b2e4e4b2004208dc1b30208d5b6fab2b780dc2900000000000000000000000000000000000000000000000000000000000000000",
        "nonce": "0x2a4",
        "chainId": "0xaa37dc"
      },
      "additionalContracts": [],
      "isFixedGasLimit": false
    },
    {
      "hash": "0xa3043f8c0f38db29a5873ff7dcf4adc6948eeb6eec8ac6980b9b413f004821f7",
      "transactionType": "CALL",
      "contractName": null,
      "contractAddress": "0x44be3dcba56171159d8672f768df707e5d2eeaa1",
      "function": "mint(address,uint256)",
      "arguments": [
        "0xb751d42fA205605A615B1273539BAf172B32bb98",
        "980815253"
      ],
      "transaction": {
        "from": "0xdb90cdb64cff03f254e4015c4f705c3f3c834400",
        "to": "0x44be3dcba56171159d8672f768df707e5d2eeaa1",
        "gas": "0x1143d",
        "value": "0x0",
        "input": "0x40c10f19000000000000000000000000b751d42fa205605a615b1273539baf172b32bb98000000000000000000000000000000000000000000000000000000003a760d95",
        "nonce": "0x2a5",
        "chainId": "0xaa37dc"
      },
      "additionalContracts": [],
      "isFixedGasLimit": false
    },
    {
      "hash": "0x37efb84155c344627708af90c7258a334fd1673f4f59880043c4efe7930cef3b",
      "transactionType": "CALL",
      "contractName": null,
      "contractAddress": "0xb2e4e4b2004208dc1b30208d5b6fab2b780dc290",
      "function": "mint(address,uint256)",
      "arguments": [
        "0xb751d42fA205605A615B1273539BAf172B32bb98",
        "1000000000000"
      ],
      "transaction": {
        "from": "0xdb90cdb64cff03f254e4015c4f705c3f3c834400",
        "to": "0xb2e4e4b2004208dc1b30208d5b6fab2b780dc290",
        "gas": "0x1143d",
        "value": "0x0",
        "input": "0x40c10f19000000000000000000000000b751d42fa205605a615b1273539baf172b32bb98000000000000000000000000000000000000000000000000000000e8d4a51000",
        "nonce": "0x2a6",
        "chainId": "0xaa37dc"
      },
      "additionalContracts": [],
      "isFixedGasLimit": false
    },
    {
      "hash": "0x17e57c6b63971fce407300e89305639bfdaaac6ee6a7256a18236cf9cf36edf3",
      "transactionType": "CALL",
      "contractName": null,
      "contractAddress": "0xb751d42fa205605a615b1273539baf172b32bb98",
      "function": "poke()",
      "arguments": [],
      "transaction": {
        "from": "0xdb90cdb64cff03f254e4015c4f705c3f3c834400",
        "to": "0xb751d42fa205605a615b1273539baf172b32bb98",
        "gas": "0x24340",
        "value": "0x0",
        "input": "0x18178358",
        "nonce": "0x2a7",
        "chainId": "0xaa37dc"
      },
      "additionalContracts": [],
      "isFixedGasLimit": false
    },
    {
      "hash": "0xe40dbaec68999e4609a7350bdf0324b94ef37d479bc34223f6797308333d441b",
      "transactionType": "CALL",
      "contractName": "MockVelodromeFactory",
      "contractAddress": "0xc28240056c0318258946729dffb7d072eba375ec",
      "function": "createPool(address,address,bool)",
      "arguments": [
        "0xc1034988Cc35C964D1D6C71e06f7c6f1CC315670",
        "0xb2e4e4B2004208dC1B30208d5B6FaB2b780DC290",
        "false"
      ],
      "transaction": {
        "from": "0xdb90cdb64cff03f254e4015c4f705c3f3c834400",
        "to": "0xc28240056c0318258946729dffb7d072eba375ec",
        "gas": "0x634a6",
        "value": "0x0",
        "input": "0x36bf95a0000000000000000000000000c1034988cc35c964d1d6c71e06f7c6f1cc315670000000000000000000000000b2e4e4b2004208dc1b30208d5b6fab2b780dc2900000000000000000000000000000000000000000000000000000000000000000",
        "nonce": "0x2a8",
        "chainId": "0xaa37dc"
      },
      "additionalContracts": [],
      "isFixedGasLimit": false
    },
    {
      "hash": "0xc2b72f8e04e95540e1e964a2a6f1ea9b8adf4561d0d07b7cb4a7729d2dfb1057",
      "transactionType": "CALL",
      "contractName": null,
      "contractAddress": "0xc1034988cc35c964d1d6c71e06f7c6f1cc315670",
      "function": "mint(address,uint256)",
      "arguments": [
        "0xF023722c11EfdAa27Cc27657D81f7A133Ec6cf62",
        "228947168585161199048"
      ],
      "transaction": {
        "from": "0xdb90cdb64cff03f254e4015c4f705c3f3c834400",
        "to": "0xc1034988cc35c964d1d6c71e06f7c6f1cc315670",
        "gas": "0x124d5",
        "value": "0x0",
        "input": "0x40c10f19000000000000000000000000f023722c11efdaa27cc27657d81f7a133ec6cf6200000000000000000000000000000000000000000000000c6947bcd06a014dc8",
        "nonce": "0x2a9",
        "chainId": "0xaa37dc"
      },
      "additionalContracts": [],
      "isFixedGasLimit": false
    },
    {
      "hash": "0xb1072d08c7c8a6723f82ba355ad6741c9900e3ee935fd56a8de0e54ad1dcfae0",
      "transactionType": "CALL",
      "contractName": null,
      "contractAddress": "0xb2e4e4b2004208dc1b30208d5b6fab2b780dc290",
      "function": "mint(address,uint256)",
      "arguments": [
        "0xF023722c11EfdAa27Cc27657D81f7A133Ec6cf62",
        "1000000000000"
      ],
      "transaction": {
        "from": "0xdb90cdb64cff03f254e4015c4f705c3f3c834400",
        "to": "0xb2e4e4b2004208dc1b30208d5b6fab2b780dc290",
        "gas": "0x1143d",
        "value": "0x0",
        "input": "0x40c10f19000000000000000000000000f023722c11efdaa27cc27657d81f7a133ec6cf62000000000000000000000000000000000000000000000000000000e8d4a51000",
        "nonce": "0x2aa",
        "chainId": "0xaa37dc"
      },
      "additionalContracts": [],
      "isFixedGasLimit": false
    },
    {
      "hash": "0xc9d96c539945f0ecb3745022ac063bd3df5ff0b4bb27c85274aabd059dda14d5",
      "transactionType": "CALL",
      "contractName": null,
      "contractAddress": "0xf023722c11efdaa27cc27657d81f7a133ec6cf62",
      "function": "poke()",
      "arguments": [],
      "transaction": {
        "from": "0xdb90cdb64cff03f254e4015c4f705c3f3c834400",
        "to": "0xf023722c11efdaa27cc27657d81f7a133ec6cf62",
        "gas": "0x24340",
        "value": "0x0",
        "input": "0x18178358",
        "nonce": "0x2ab",
        "chainId": "0xaa37dc"
      },
      "additionalContracts": [],
      "isFixedGasLimit": false
    },
    {
      "hash": "0xc881231b109a2573500335f38b4f9a5e03b0580b5f590a6db2e396429da585ad",
      "transactionType": "CALL",
      "contractName": "MockVelodromeFactory",
      "contractAddress": "0xc28240056c0318258946729dffb7d072eba375ec",
      "function": "createPool(address,address,bool)",
      "arguments": [
        "0x3BBeA1538919d20C229B5D21D41cf2FCd17b13dB",
        "0xb2e4e4B2004208dC1B30208d5B6FaB2b780DC290",
        "false"
      ],
      "transaction": {
        "from": "0xdb90cdb64cff03f254e4015c4f705c3f3c834400",
        "to": "0xc28240056c0318258946729dffb7d072eba375ec",
        "gas": "0x5dc56",
        "value": "0x0",
        "input": "0x36bf95a00000000000000000000000003bbea1538919d20c229b5d21d41cf2fcd17b13db000000000000000000000000b2e4e4b2004208dc1b30208d5b6fab2b780dc2900000000000000000000000000000000000000000000000000000000000000000",
        "nonce": "0x2ac",
        "chainId": "0xaa37dc"
      },
      "additionalContracts": [],
      "isFixedGasLimit": false
    },
    {
      "hash": "0x492de347e558a57849f16b787a512a55a3efdaf869896a34551f9a33849921b6",
      "transactionType": "CALL",
      "contractName": null,
      "contractAddress": "0x3bbea1538919d20c229b5d21d41cf2fcd17b13db",
      "function": "mint(address,uint256)",
      "arguments": [
        "0x655c693E68e6457e7cA8900afDaAaef0448eeE09",
        "471035441884235974625320"
      ],
      "transaction": {
        "from": "0xdb90cdb64cff03f254e4015c4f705c3f3c834400",
        "to": "0x3bbea1538919d20c229b5d21d41cf2fcd17b13db",
        "gas": "0x114a1",
        "value": "0x0",
        "input": "0x40c10f19000000000000000000000000655c693e68e6457e7ca8900afdaaaef0448eee090000000000000000000000000000000000000000000063bee1e994fb9028c828",
        "nonce": "0x2ad",
        "chainId": "0xaa37dc"
      },
      "additionalContracts": [],
      "isFixedGasLimit": false
    },
    {
      "hash": "0xd12e7405e53b66d66be678ae2c14d7899b4066d7526020471fad8a5c7eee30d4",
      "transactionType": "CALL",
      "contractName": null,
      "contractAddress": "0xb2e4e4b2004208dc1b30208d5b6fab2b780dc290",
      "function": "mint(address,uint256)",
      "arguments": [
        "0x655c693E68e6457e7cA8900afDaAaef0448eeE09",
        "1000000000000"
      ],
      "transaction": {
        "from": "0xdb90cdb64cff03f254e4015c4f705c3f3c834400",
        "to": "0xb2e4e4b2004208dc1b30208d5b6fab2b780dc290",
        "gas": "0x1143d",
        "value": "0x0",
        "input": "0x40c10f19000000000000000000000000655c693e68e6457e7ca8900afdaaaef0448eee09000000000000000000000000000000000000000000000000000000e8d4a51000",
        "nonce": "0x2ae",
        "chainId": "0xaa37dc"
      },
      "additionalContracts": [],
      "isFixedGasLimit": false
    },
    {
      "hash": "0xd5c9ee4fe7b02dfd9c13a283d5991904f9a92208ada9a085777916a322027b2a",
      "transactionType": "CALL",
      "contractName": null,
      "contractAddress": "0x655c693e68e6457e7ca8900afdaaaef0448eee09",
      "function": "poke()",
      "arguments": [],
      "transaction": {
        "from": "0xdb90cdb64cff03f254e4015c4f705c3f3c834400",
        "to": "0x655c693e68e6457e7ca8900afdaaaef0448eee09",
        "gas": "0x24340",
        "value": "0x0",
        "input": "0x18178358",
        "nonce": "0x2af",
        "chainId": "0xaa37dc"
      },
      "additionalContracts": [],
      "isFixedGasLimit": false
    }
  ],
  "receipts": [
    {
      "status": "0x1",
      "cumulativeGasUsed": "0x135b28",
      "logs": [],
      "logsBloom": "0x00000000000000000000000000000000000000000000000000000000000000000000000000000000000000000000000000000000000000000000000000000000000000000000000000000000000000000000000000000000000000000000000000000000000000000000000000000000000000000000000000000000000000000000000000000000000000000000000000000000000000000000000000000000000000000000000000000000000000000000000000000000000000000000000000000000000000000000000000000000000000000000000000000000000000000000000000000000000000000000000000000000000000000000000000000000",
      "type": "0x2",
      "transactionHash": "0xcdd0bf58144ca53f86172a5253267a6042c0a4c1ffd6994fd2883d0ed83234e0",
      "transactionIndex": "0x2",
      "blockHash": "0x6120fdfd41425342a0789ce363df8671df2f875c045bb5b9db299984962e52f6",
      "blockNumber": "0x1469f3d",
      "gasUsed": "0x11571b",
      "effectiveGasPrice": "0x9897e0",
      "from": "0xdb90cdb64cff03f254e4015c4f705c3f3c834400",
      "to": null,
      "contractAddress": "0xc28240056c0318258946729dffb7d072eba375ec",
      "l1BaseFeeScalar": "0x1db0",
      "l1BlobBaseFee": "0x1",
      "l1BlobBaseFeeScalar": "0xd2730",
      "l1Fee": "0x2768d55b46ce",
      "l1GasPrice": "0x1e2ed6b430",
      "l1GasUsed": "0xabcd"
    },
    {
      "status": "0x1",
      "cumulativeGasUsed": "0x1e8ad2",
      "logs": [],
      "logsBloom": "0x00000000000000000000000000000000000000000000000000000000000000000000000000000000000000000000000000000000000000000000000000000000000000000000000000000000000000000000000000000000000000000000000000000000000000000000000000000000000000000000000000000000000000000000000000000000000000000000000000000000000000000000000000000000000000000000000000000000000000000000000000000000000000000000000000000000000000000000000000000000000000000000000000000000000000000000000000000000000000000000000000000000000000000000000000000000",
      "type": "0x2",
      "transactionHash": "0x3406f0a49c40e053a44a903a84b3e2f2ed3c97a060a7469a8c84789107fc3220",
      "transactionIndex": "0x3",
      "blockHash": "0x6120fdfd41425342a0789ce363df8671df2f875c045bb5b9db299984962e52f6",
      "blockNumber": "0x1469f3d",
      "gasUsed": "0xb2faa",
      "effectiveGasPrice": "0x9897e0",
      "from": "0xdb90cdb64cff03f254e4015c4f705c3f3c834400",
      "to": null,
      "contractAddress": "0x7af28c94757628378e625ad8b6f51f2ac1391eda",
      "l1BaseFeeScalar": "0x1db0",
      "l1BlobBaseFee": "0x1",
      "l1BlobBaseFeeScalar": "0xd2730",
      "l1Fee": "0x161784b51ccc",
      "l1GasPrice": "0x1e2ed6b430",
      "l1GasUsed": "0x604e"
    },
    {
      "status": "0x1",
      "cumulativeGasUsed": "0x22c90a",
      "logs": [],
      "logsBloom": "0x00000000000000000000000000000000000000000000000000000000000000000000000000000000000000000000000000000000000000000000000000000000000000000000000000000000000000000000000000000000000000000000000000000000000000000000000000000000000000000000000000000000000000000000000000000000000000000000000000000000000000000000000000000000000000000000000000000000000000000000000000000000000000000000000000000000000000000000000000000000000000000000000000000000000000000000000000000000000000000000000000000000000000000000000000000000",
      "type": "0x2",
      "transactionHash": "0x3ab4ad2f871d2c87dd2a9ebbbe358753562d7c7fadaf8b7320b72c9a8ba815a0",
      "transactionIndex": "0x4",
      "blockHash": "0x6120fdfd41425342a0789ce363df8671df2f875c045bb5b9db299984962e52f6",
      "blockNumber": "0x1469f3d",
      "gasUsed": "0x43e38",
      "effectiveGasPrice": "0x9897e0",
      "from": "0xdb90cdb64cff03f254e4015c4f705c3f3c834400",
      "to": "0xc28240056c0318258946729dffb7d072eba375ec",
      "contractAddress": null,
      "l1BaseFeeScalar": "0x1db0",
      "l1BlobBaseFee": "0x1",
      "l1BlobBaseFeeScalar": "0xd2730",
      "l1Fee": "0x18942686ed5",
      "l1GasPrice": "0x1e2ed6b430",
      "l1GasUsed": "0x6b2"
    },
    {
      "status": "0x1",
      "cumulativeGasUsed": "0x239145",
      "logs": [
        {
          "address": "0x2fb5672a2736946201e6343c799a553c83f38c7f",
          "topics": [
            "0xddf252ad1be2c89b69c2b068fc378daa952ba7f163c4a11628f55a4df523b3ef",
            "0x0000000000000000000000000000000000000000000000000000000000000000",
            "0x00000000000000000000000056fb2d93df98853db9cc886a3f8d436ba81be983"
          ],
          "data": "0x00000000000000000000000000000000000000000000000ec01ea493826841f2",
          "blockHash": "0x6120fdfd41425342a0789ce363df8671df2f875c045bb5b9db299984962e52f6",
          "blockNumber": "0x1469f3d",
          "transactionHash": "0x2699df301ade4ffd5d22cfac7d93fba3935bd409fc079e0a88dccc3075f5d572",
          "transactionIndex": "0x5",
          "logIndex": "0x2",
          "removed": false
        }
      ],
      "logsBloom": "0x00000000000000000000080000000000000000000000000000000000000000000000000000000000000400000000000000000000000000000000000000000000000000000000000000000008000000000000000000000000000000000000000000000000028000000000000000000800000000001000000000000010000000000000000000000000000000000000000000000000000000000000000000000000000000000000000000000000000000000000000000000000010000000000000000000002000000000000001000000000000000000000000000000000000020000000000000000000000000000000000000000000000000000000000000000000",
      "type": "0x2",
      "transactionHash": "0x2699df301ade4ffd5d22cfac7d93fba3935bd409fc079e0a88dccc3075f5d572",
      "transactionIndex": "0x5",
      "blockHash": "0x6120fdfd41425342a0789ce363df8671df2f875c045bb5b9db299984962e52f6",
      "blockNumber": "0x1469f3d",
      "gasUsed": "0xc83b",
      "effectiveGasPrice": "0x9897e0",
      "from": "0xdb90cdb64cff03f254e4015c4f705c3f3c834400",
      "to": "0x2fb5672a2736946201e6343c799a553c83f38c7f",
      "contractAddress": null,
      "l1BaseFeeScalar": "0x1db0",
      "l1BlobBaseFee": "0x1",
      "l1BlobBaseFeeScalar": "0xd2730",
      "l1Fee": "0x16f065bc29d",
      "l1GasPrice": "0x1e2ed6b430",
      "l1GasUsed": "0x640"
    },
    {
      "status": "0x1",
      "cumulativeGasUsed": "0x245944",
      "logs": [
        {
          "address": "0xb2e4e4b2004208dc1b30208d5b6fab2b780dc290",
          "topics": [
            "0xddf252ad1be2c89b69c2b068fc378daa952ba7f163c4a11628f55a4df523b3ef",
            "0x0000000000000000000000000000000000000000000000000000000000000000",
            "0x00000000000000000000000056fb2d93df98853db9cc886a3f8d436ba81be983"
          ],
          "data": "0x000000000000000000000000000000000000000000000000000000e8d4a51000",
          "blockHash": "0x6120fdfd41425342a0789ce363df8671df2f875c045bb5b9db299984962e52f6",
          "blockNumber": "0x1469f3d",
          "transactionHash": "0xd78f62c8a8682ae4c7a001d090ca29f1f9caf7fe196d08e0487d5f2b9cdb0605",
          "transactionIndex": "0x6",
          "logIndex": "0x3",
          "removed": false
        }
      ],
      "logsBloom": "0x00000000000000000000000000000000000000000000000000000000000000000000000000000000000400000000000000000000000000000000000000000000000000000000000000000008000000000000000000000000000000000000000000000000028000000000000000000800000000001000020000000010000000000000000000000000000000000000000000000000000000000000000000000000002000000000000000000000000000000000000000000000000000000000000000000002000000000000000000000000000000000000000000000000000020000000000000000000000000000100000000000000000000000000000000000000",
      "type": "0x2",
      "transactionHash": "0xd78f62c8a8682ae4c7a001d090ca29f1f9caf7fe196d08e0487d5f2b9cdb0605",
      "transactionIndex": "0x6",
      "blockHash": "0x6120fdfd41425342a0789ce363df8671df2f875c045bb5b9db299984962e52f6",
      "blockNumber": "0x1469f3d",
      "gasUsed": "0xc7ff",
      "effectiveGasPrice": "0x9897e0",
      "from": "0xdb90cdb64cff03f254e4015c4f705c3f3c834400",
      "to": "0xb2e4e4b2004208dc1b30208d5b6fab2b780dc290",
      "contractAddress": null,
      "l1BaseFeeScalar": "0x1db0",
      "l1BlobBaseFee": "0x1",
      "l1BlobBaseFeeScalar": "0xd2730",
      "l1Fee": "0x16f065bc29d",
      "l1GasPrice": "0x1e2ed6b430",
      "l1GasUsed": "0x640"
    },
    {
      "status": "0x1",
      "cumulativeGasUsed": "0x25fca3",
      "logs": [],
      "logsBloom": "0x00000000000000000000000000000000000000000000000000000000000000000000000000000000000000000000000000000000000000000000000000000000000000000000000000000000000000000000000000000000000000000000000000000000000000000000000000000000000000000000000000000000000000000000000000000000000000000000000000000000000000000000000000000000000000000000000000000000000000000000000000000000000000000000000000000000000000000000000000000000000000000000000000000000000000000000000000000000000000000000000000000000000000000000000000000000",
      "type": "0x2",
      "transactionHash": "0xdb237cd3ac4c0bcb847ffaa79c716240022aaec433ac19b37ba139f692e8fee7",
      "transactionIndex": "0x7",
      "blockHash": "0x6120fdfd41425342a0789ce363df8671df2f875c045bb5b9db299984962e52f6",
      "blockNumber": "0x1469f3d",
      "gasUsed": "0x1a35f",
      "effectiveGasPrice": "0x9897e0",
      "from": "0xdb90cdb64cff03f254e4015c4f705c3f3c834400",
      "to": "0x56fb2d93df98853db9cc886a3f8d436ba81be983",
      "contractAddress": null,
      "l1BaseFeeScalar": "0x1db0",
      "l1BlobBaseFee": "0x1",
      "l1BlobBaseFeeScalar": "0xd2730",
      "l1Fee": "0x16f065bc29d",
      "l1GasPrice": "0x1e2ed6b430",
      "l1GasUsed": "0x640"
    },
    {
      "status": "0x1",
      "cumulativeGasUsed": "0x2a3adb",
      "logs": [],
      "logsBloom": "0x00000000000000000000000000000000000000000000000000000000000000000000000000000000000000000000000000000000000000000000000000000000000000000000000000000000000000000000000000000000000000000000000000000000000000000000000000000000000000000000000000000000000000000000000000000000000000000000000000000000000000000000000000000000000000000000000000000000000000000000000000000000000000000000000000000000000000000000000000000000000000000000000000000000000000000000000000000000000000000000000000000000000000000000000000000000",
      "type": "0x2",
      "transactionHash": "0xb9bf3957e97c8f7c50cdf24590a7870b0b0e8d353d18fad3d415892576ddfd48",
      "transactionIndex": "0x8",
      "blockHash": "0x6120fdfd41425342a0789ce363df8671df2f875c045bb5b9db299984962e52f6",
      "blockNumber": "0x1469f3d",
      "gasUsed": "0x43e38",
      "effectiveGasPrice": "0x9897e0",
      "from": "0xdb90cdb64cff03f254e4015c4f705c3f3c834400",
      "to": "0xc28240056c0318258946729dffb7d072eba375ec",
      "contractAddress": null,
      "l1BaseFeeScalar": "0x1db0",
      "l1BlobBaseFee": "0x1",
      "l1BlobBaseFeeScalar": "0xd2730",
      "l1Fee": "0x18942686ed5",
      "l1GasPrice": "0x1e2ed6b430",
      "l1GasUsed": "0x6b2"
    },
    {
      "status": "0x1",
      "cumulativeGasUsed": "0x2b0316",
      "logs": [
        {
          "address": "0x91a2d012cd88f0d17078d221b0f36af7a2e45602",
          "topics": [
            "0xddf252ad1be2c89b69c2b068fc378daa952ba7f163c4a11628f55a4df523b3ef",
            "0x0000000000000000000000000000000000000000000000000000000000000000",
            "0x000000000000000000000000e03ae28b39349e11981f20af0074dc20872abedb"
          ],
          "data": "0x00000000000000000000000000000000000000000000d3cc40d3ebbb7f0df689",
          "blockHash": "0x6120fdfd41425342a0789ce363df8671df2f875c045bb5b9db299984962e52f6",
          "blockNumber": "0x1469f3d",
          "transactionHash": "0x50714920695779fc6714d76de46080a950f5cc2b38a1c3a5d78bbdd2befd867d",
          "transactionIndex": "0x9",
          "logIndex": "0x4",
          "removed": false
        }
      ],
      "logsBloom": "0x00000000000000000000000000000000000000000000000000000000000000000000000000000000000000000000000000000000000000000000000000000000000000000000000000000048000000000000000000000000000000000000000000000000020100000000000000000800000000000000000000000010000000000000000100000000002000000000000000000000000000000000000000000000000000008000000000000000000000000000800000000000000000000000000000000002000000000000000000000000000000000000000000000000000020000000000000000000000000000000000000000000000000000000000000000000",
      "type": "0x2",
      "transactionHash": "0x50714920695779fc6714d76de46080a950f5cc2b38a1c3a5d78bbdd2befd867d",
      "transactionIndex": "0x9",
      "blockHash": "0x6120fdfd41425342a0789ce363df8671df2f875c045bb5b9db299984962e52f6",
      "blockNumber": "0x1469f3d",
      "gasUsed": "0xc83b",
      "effectiveGasPrice": "0x9897e0",
      "from": "0xdb90cdb64cff03f254e4015c4f705c3f3c834400",
      "to": "0x91a2d012cd88f0d17078d221b0f36af7a2e45602",
      "contractAddress": null,
      "l1BaseFeeScalar": "0x1db0",
      "l1BlobBaseFee": "0x1",
      "l1BlobBaseFeeScalar": "0xd2730",
      "l1Fee": "0x16f065bc29d",
      "l1GasPrice": "0x1e2ed6b430",
      "l1GasUsed": "0x640"
    },
    {
      "status": "0x1",
      "cumulativeGasUsed": "0x2bcb09",
      "logs": [
        {
          "address": "0xb2e4e4b2004208dc1b30208d5b6fab2b780dc290",
          "topics": [
            "0xddf252ad1be2c89b69c2b068fc378daa952ba7f163c4a11628f55a4df523b3ef",
            "0x0000000000000000000000000000000000000000000000000000000000000000",
            "0x000000000000000000000000e03ae28b39349e11981f20af0074dc20872abedb"
          ],
          "data": "0x000000000000000000000000000000000000000000000000000000e8d4a51000",
          "blockHash": "0x6120fdfd41425342a0789ce363df8671df2f875c045bb5b9db299984962e52f6",
          "blockNumber": "0x1469f3d",
          "transactionHash": "0x67840e247cdb7b0cc4f750558d113583561247bc5121c8f9778510177352275b",
          "transactionIndex": "0xa",
          "logIndex": "0x5",
          "removed": false
        }
      ],
      "logsBloom": "0x00000000000000000000000000000000000000000000000000000000000000000000000000000000000000000000000000000000000000000000000000000000000000000000000000000008000000000000000000000000000000000000000000000000020100000000000000000800000000000000020000000010000000000000000000000000002000000000000000000000000000000000000000000000002000008000000000000000000000000000000000000000000000000000000000000002000000000000000000000000000000000000000000000000000020000000000000000000000000000100000000000000000000000000000000000000",
      "type": "0x2",
      "transactionHash": "0x67840e247cdb7b0cc4f750558d113583561247bc5121c8f9778510177352275b",
      "transactionIndex": "0xa",
      "blockHash": "0x6120fdfd41425342a0789ce363df8671df2f875c045bb5b9db299984962e52f6",
      "blockNumber": "0x1469f3d",
      "gasUsed": "0xc7f3",
      "effectiveGasPrice": "0x9897e0",
      "from": "0xdb90cdb64cff03f254e4015c4f705c3f3c834400",
      "to": "0xb2e4e4b2004208dc1b30208d5b6fab2b780dc290",
      "contractAddress": null,
      "l1BaseFeeScalar": "0x1db0",
      "l1BlobBaseFee": "0x1",
      "l1BlobBaseFeeScalar": "0xd2730",
      "l1Fee": "0x16f065bc29d",
      "l1GasPrice": "0x1e2ed6b430",
      "l1GasUsed": "0x640"
    },
    {
      "status": "0x1",
      "cumulativeGasUsed": "0x2d6e68",
      "logs": [],
      "logsBloom": "0x00000000000000000000000000000000000000000000000000000000000000000000000000000000000000000000000000000000000000000000000000000000000000000000000000000000000000000000000000000000000000000000000000000000000000000000000000000000000000000000000000000000000000000000000000000000000000000000000000000000000000000000000000000000000000000000000000000000000000000000000000000000000000000000000000000000000000000000000000000000000000000000000000000000000000000000000000000000000000000000000000000000000000000000000000000000",
      "type": "0x2",
      "transactionHash": "0x136d15b6c6a5f346f198694f0662ff9d8887a46a7db33d3380ccbaf9bb526b66",
      "transactionIndex": "0xb",
      "blockHash": "0x6120fdfd41425342a0789ce363df8671df2f875c045bb5b9db299984962e52f6",
      "blockNumber": "0x1469f3d",
      "gasUsed": "0x1a35f",
      "effectiveGasPrice": "0x9897e0",
      "from": "0xdb90cdb64cff03f254e4015c4f705c3f3c834400",
      "to": "0xe03ae28b39349e11981f20af0074dc20872abedb",
      "contractAddress": null,
      "l1BaseFeeScalar": "0x1db0",
      "l1BlobBaseFee": "0x1",
      "l1BlobBaseFeeScalar": "0xd2730",
      "l1Fee": "0x16f065bc29d",
      "l1GasPrice": "0x1e2ed6b430",
      "l1GasUsed": "0x640"
    },
    {
      "status": "0x1",
      "cumulativeGasUsed": "0x31aca0",
      "logs": [],
      "logsBloom": "0x00000000000000000000000000000000000000000000000000000000000000000000000000000000000000000000000000000000000000000000000000000000000000000000000000000000000000000000000000000000000000000000000000000000000000000000000000000000000000000000000000000000000000000000000000000000000000000000000000000000000000000000000000000000000000000000000000000000000000000000000000000000000000000000000000000000000000000000000000000000000000000000000000000000000000000000000000000000000000000000000000000000000000000000000000000000",
      "type": "0x2",
      "transactionHash": "0x21d0afbf0651307525e82f490e871257f0680da0d575c3d52037dae426520547",
      "transactionIndex": "0xc",
      "blockHash": "0x6120fdfd41425342a0789ce363df8671df2f875c045bb5b9db299984962e52f6",
      "blockNumber": "0x1469f3d",
      "gasUsed": "0x43e38",
      "effectiveGasPrice": "0x9897e0",
      "from": "0xdb90cdb64cff03f254e4015c4f705c3f3c834400",
      "to": "0xc28240056c0318258946729dffb7d072eba375ec",
      "contractAddress": null,
      "l1BaseFeeScalar": "0x1db0",
      "l1BlobBaseFee": "0x1",
      "l1BlobBaseFeeScalar": "0xd2730",
      "l1Fee": "0x18942686ed5",
      "l1GasPrice": "0x1e2ed6b430",
      "l1GasUsed": "0x6b2"
    },
    {
      "status": "0x1",
      "cumulativeGasUsed": "0x3274ab",
      "logs": [
        {
          "address": "0x531784fd9aba26c965de4423d331de8d89cd6ab3",
          "topics": [
            "0xddf252ad1be2c89b69c2b068fc378daa952ba7f163c4a11628f55a4df523b3ef",
            "0x0000000000000000000000000000000000000000000000000000000000000000",
            "0x0000000000000000000000001db32bf3e713230ceed0be02bd837c4501bd80a5"
          ],
          "data": "0x000000000000000000000000000000000000000000000000000000e8d439a431",
          "blockHash": "0x6120fdfd41425342a0789ce363df8671df2f875c045bb5b9db299984962e52f6",
          "blockNumber": "0x1469f3d",
          "transactionHash": "0x5b79e3a08cd38c9add5aee075cac4902c9ff44cbb48eb3780d6f6cf75c0baaad",
          "transactionIndex": "0xd",
          "logIndex": "0x6",
          "removed": false
        }
      ],
      "logsBloom": "0x00000000080000000000000000000000000000000000000000000000000000000000000000000000000000000000000000000000000000000000000000000000000000000000080000008008000000000000000000000000000000000000000000000000020000000000000000000800000000000000000000000010000000000000000000000000000000000000000000000008000000000000000000000000000000000000000000000000000000000000000000000000000000000000000000000002000000000000000000000000000000004800000000000000000020000000000000000000000000000000000000000000000000000000000000000000",
      "type": "0x2",
      "transactionHash": "0x5b79e3a08cd38c9add5aee075cac4902c9ff44cbb48eb3780d6f6cf75c0baaad",
      "transactionIndex": "0xd",
      "blockHash": "0x6120fdfd41425342a0789ce363df8671df2f875c045bb5b9db299984962e52f6",
      "blockNumber": "0x1469f3d",
      "gasUsed": "0xc80b",
      "effectiveGasPrice": "0x9897e0",
      "from": "0xdb90cdb64cff03f254e4015c4f705c3f3c834400",
      "to": "0x531784fd9aba26c965de4423d331de8d89cd6ab3",
      "contractAddress": null,
      "l1BaseFeeScalar": "0x1db0",
      "l1BlobBaseFee": "0x1",
      "l1BlobBaseFeeScalar": "0xd2730",
      "l1Fee": "0x16f065bc29d",
      "l1GasPrice": "0x1e2ed6b430",
      "l1GasUsed": "0x640"
    },
    {
      "status": "0x1",
      "cumulativeGasUsed": "0x333caa",
      "logs": [
        {
          "address": "0xb2e4e4b2004208dc1b30208d5b6fab2b780dc290",
          "topics": [
            "0xddf252ad1be2c89b69c2b068fc378daa952ba7f163c4a11628f55a4df523b3ef",
            "0x0000000000000000000000000000000000000000000000000000000000000000",
            "0x0000000000000000000000001db32bf3e713230ceed0be02bd837c4501bd80a5"
          ],
          "data": "0x000000000000000000000000000000000000000000000000000000e8d4a51000",
          "blockHash": "0x6120fdfd41425342a0789ce363df8671df2f875c045bb5b9db299984962e52f6",
          "blockNumber": "0x1469f3d",
          "transactionHash": "0x3456ca7d1d06a209fd085e40ce61a09d15cc0cd0565a2fa8266e1d761b15db2d",
          "transactionIndex": "0xe",
          "logIndex": "0x7",
          "removed": false
        }
      ],
      "logsBloom": "0x00000000000000000000000000000000000000000000000000000000000000000000000000000000000000000000000000000000000000000000000000000000000000000000080000000008000000000000000000000000000000000000000000000000020000000000000000000800000000000000020000000010000000000000000000000000000000000000000000000008000000000000000000000000002000000000000000000000000000000000000000000000000000000000000000000002000000000000000000000000000000004000000000000000000020000000000000000000000000000100000000000000000000000000000000000000",
      "type": "0x2",
      "transactionHash": "0x3456ca7d1d06a209fd085e40ce61a09d15cc0cd0565a2fa8266e1d761b15db2d",
      "transactionIndex": "0xe",
      "blockHash": "0x6120fdfd41425342a0789ce363df8671df2f875c045bb5b9db299984962e52f6",
      "blockNumber": "0x1469f3d",
      "gasUsed": "0xc7ff",
      "effectiveGasPrice": "0x9897e0",
      "from": "0xdb90cdb64cff03f254e4015c4f705c3f3c834400",
      "to": "0xb2e4e4b2004208dc1b30208d5b6fab2b780dc290",
      "contractAddress": null,
      "l1BaseFeeScalar": "0x1db0",
      "l1BlobBaseFee": "0x1",
      "l1BlobBaseFeeScalar": "0xd2730",
      "l1Fee": "0x16f065bc29d",
      "l1GasPrice": "0x1e2ed6b430",
      "l1GasUsed": "0x640"
    },
    {
      "status": "0x1",
      "cumulativeGasUsed": "0x34e009",
      "logs": [],
      "logsBloom": "0x00000000000000000000000000000000000000000000000000000000000000000000000000000000000000000000000000000000000000000000000000000000000000000000000000000000000000000000000000000000000000000000000000000000000000000000000000000000000000000000000000000000000000000000000000000000000000000000000000000000000000000000000000000000000000000000000000000000000000000000000000000000000000000000000000000000000000000000000000000000000000000000000000000000000000000000000000000000000000000000000000000000000000000000000000000000",
      "type": "0x2",
      "transactionHash": "0x148e3dd63b2d4092d95d4dae07c3729853784f788d1f5869ba5d7015fb7c30a1",
      "transactionIndex": "0xf",
      "blockHash": "0x6120fdfd41425342a0789ce363df8671df2f875c045bb5b9db299984962e52f6",
      "blockNumber": "0x1469f3d",
      "gasUsed": "0x1a35f",
      "effectiveGasPrice": "0x9897e0",
      "from": "0xdb90cdb64cff03f254e4015c4f705c3f3c834400",
      "to": "0x1db32bf3e713230ceed0be02bd837c4501bd80a5",
      "contractAddress": null,
      "l1BaseFeeScalar": "0x1db0",
      "l1BlobBaseFee": "0x1",
      "l1BlobBaseFeeScalar": "0xd2730",
      "l1Fee": "0x16f065bc29d",
      "l1GasPrice": "0x1e2ed6b430",
      "l1GasUsed": "0x640"
    },
    {
      "status": "0x1",
      "cumulativeGasUsed": "0x391e41",
      "logs": [],
      "logsBloom": "0x00000000000000000000000000000000000000000000000000000000000000000000000000000000000000000000000000000000000000000000000000000000000000000000000000000000000000000000000000000000000000000000000000000000000000000000000000000000000000000000000000000000000000000000000000000000000000000000000000000000000000000000000000000000000000000000000000000000000000000000000000000000000000000000000000000000000000000000000000000000000000000000000000000000000000000000000000000000000000000000000000000000000000000000000000000000",
      "type": "0x2",
      "transactionHash": "0xa744cd0098666ad1a74ae9182358b5d19a13f32cb331a9363c76dca5281b84ba",
      "transactionIndex": "0x10",
      "blockHash": "0x6120fdfd41425342a0789ce363df8671df2f875c045bb5b9db299984962e52f6",
      "blockNumber": "0x1469f3d",
      "gasUsed": "0x43e38",
      "effectiveGasPrice": "0x9897e0",
      "from": "0xdb90cdb64cff03f254e4015c4f705c3f3c834400",
      "to": "0xc28240056c0318258946729dffb7d072eba375ec",
      "contractAddress": null,
      "l1BaseFeeScalar": "0x1db0",
      "l1BlobBaseFee": "0x1",
      "l1BlobBaseFeeScalar": "0xd2730",
      "l1Fee": "0x18630723eef",
      "l1GasPrice": "0x1e2ed6b430",
      "l1GasUsed": "0x6a4"
    },
    {
      "status": "0x1",
      "cumulativeGasUsed": "0x2cc00",
      "logs": [
        {
          "address": "0x44be3dcba56171159d8672f768df707e5d2eeaa1",
          "topics": [
            "0xddf252ad1be2c89b69c2b068fc378daa952ba7f163c4a11628f55a4df523b3ef",
            "0x0000000000000000000000000000000000000000000000000000000000000000",
            "0x000000000000000000000000b751d42fa205605a615b1273539baf172b32bb98"
          ],
          "data": "0x000000000000000000000000000000000000000000000000000000003a760d95",
          "blockHash": "0xaeab470fb4fa5ed59d9f21161d0ffd414e0e83fdaae5984905afc554589376b8",
          "blockNumber": "0x1469f3e",
          "transactionHash": "0xa3043f8c0f38db29a5873ff7dcf4adc6948eeb6eec8ac6980b9b413f004821f7",
          "transactionIndex": "0x2",
          "logIndex": "0x2",
          "removed": false
        }
      ],
      "logsBloom": "0x00000000000000000001000000000000000000100000000000400000000000000000000000000000000000000000000000000000000000000002000000000000000000000000000000000008000000000000000000000000000000000000000000000000020000000000000000000800000000000000000000000010000000000000000000000000000000000000000000000000000000000000000000000000000000000000000000000000000000000000000000000000000000000000000000000002000000000000000000000000000000000000000000000000000020000000000000000000000000000000000000000000000000010000000000000000",
      "type": "0x2",
      "transactionHash": "0xa3043f8c0f38db29a5873ff7dcf4adc6948eeb6eec8ac6980b9b413f004821f7",
      "transactionIndex": "0x2",
      "blockHash": "0xaeab470fb4fa5ed59d9f21161d0ffd414e0e83fdaae5984905afc554589376b8",
      "blockNumber": "0x1469f3e",
      "gasUsed": "0xc7ff",
      "effectiveGasPrice": "0x9897e0",
      "from": "0xdb90cdb64cff03f254e4015c4f705c3f3c834400",
      "to": "0x44be3dcba56171159d8672f768df707e5d2eeaa1",
      "contractAddress": null,
      "l1BaseFeeScalar": "0x1db0",
      "l1BlobBaseFee": "0x1",
      "l1BlobBaseFeeScalar": "0xd2730",
      "l1Fee": "0x16f065bc29d",
      "l1GasPrice": "0x1e2ed6b430",
      "l1GasUsed": "0x640"
    },
    {
      "status": "0x1",
      "cumulativeGasUsed": "0x393ff",
      "logs": [
        {
          "address": "0xb2e4e4b2004208dc1b30208d5b6fab2b780dc290",
          "topics": [
            "0xddf252ad1be2c89b69c2b068fc378daa952ba7f163c4a11628f55a4df523b3ef",
            "0x0000000000000000000000000000000000000000000000000000000000000000",
            "0x000000000000000000000000b751d42fa205605a615b1273539baf172b32bb98"
          ],
          "data": "0x000000000000000000000000000000000000000000000000000000e8d4a51000",
          "blockHash": "0xaeab470fb4fa5ed59d9f21161d0ffd414e0e83fdaae5984905afc554589376b8",
          "blockNumber": "0x1469f3e",
          "transactionHash": "0x37efb84155c344627708af90c7258a334fd1673f4f59880043c4efe7930cef3b",
          "transactionIndex": "0x3",
          "logIndex": "0x3",
          "removed": false
        }
      ],
      "logsBloom": "0x00000000000000000001000000000000000000100000000000400000000000000000000000000000000000000000000000000000000000000000000000000000000000000000000000000008000000000000000000000000000000000000000000000000020000000000000000000800000000000000020000000010000000000000000000000000000000000000000000000000000000000000000000000000002000000000000000000000000000000000000000000000000000000000000000000002000000000000000000000000000000000000000000000000000020000000000000000000000000000100000000000000000000000000000000000000",
      "type": "0x2",
      "transactionHash": "0x37efb84155c344627708af90c7258a334fd1673f4f59880043c4efe7930cef3b",
      "transactionIndex": "0x3",
      "blockHash": "0xaeab470fb4fa5ed59d9f21161d0ffd414e0e83fdaae5984905afc554589376b8",
      "blockNumber": "0x1469f3e",
      "gasUsed": "0xc7ff",
      "effectiveGasPrice": "0x9897e0",
      "from": "0xdb90cdb64cff03f254e4015c4f705c3f3c834400",
      "to": "0xb2e4e4b2004208dc1b30208d5b6fab2b780dc290",
      "contractAddress": null,
      "l1BaseFeeScalar": "0x1db0",
      "l1BlobBaseFee": "0x1",
      "l1BlobBaseFeeScalar": "0xd2730",
      "l1Fee": "0x16f065bc29d",
      "l1GasPrice": "0x1e2ed6b430",
      "l1GasUsed": "0x640"
    },
    {
      "status": "0x1",
      "cumulativeGasUsed": "0x5375e",
      "logs": [],
      "logsBloom": "0x00000000000000000000000000000000000000000000000000000000000000000000000000000000000000000000000000000000000000000000000000000000000000000000000000000000000000000000000000000000000000000000000000000000000000000000000000000000000000000000000000000000000000000000000000000000000000000000000000000000000000000000000000000000000000000000000000000000000000000000000000000000000000000000000000000000000000000000000000000000000000000000000000000000000000000000000000000000000000000000000000000000000000000000000000000000",
      "type": "0x2",
      "transactionHash": "0x17e57c6b63971fce407300e89305639bfdaaac6ee6a7256a18236cf9cf36edf3",
      "transactionIndex": "0x4",
      "blockHash": "0xaeab470fb4fa5ed59d9f21161d0ffd414e0e83fdaae5984905afc554589376b8",
      "blockNumber": "0x1469f3e",
      "gasUsed": "0x1a35f",
      "effectiveGasPrice": "0x9897e0",
      "from": "0xdb90cdb64cff03f254e4015c4f705c3f3c834400",
      "to": "0xb751d42fa205605a615b1273539baf172b32bb98",
      "contractAddress": null,
      "l1BaseFeeScalar": "0x1db0",
      "l1BlobBaseFee": "0x1",
      "l1BlobBaseFeeScalar": "0xd2730",
      "l1Fee": "0x16f065bc29d",
      "l1GasPrice": "0x1e2ed6b430",
      "l1GasUsed": "0x640"
    },
    {
      "status": "0x1",
      "cumulativeGasUsed": "0x975a0",
      "logs": [],
      "logsBloom": "0x00000000000000000000000000000000000000000000000000000000000000000000000000000000000000000000000000000000000000000000000000000000000000000000000000000000000000000000000000000000000000000000000000000000000000000000000000000000000000000000000000000000000000000000000000000000000000000000000000000000000000000000000000000000000000000000000000000000000000000000000000000000000000000000000000000000000000000000000000000000000000000000000000000000000000000000000000000000000000000000000000000000000000000000000000000000",
      "type": "0x2",
      "transactionHash": "0xe40dbaec68999e4609a7350bdf0324b94ef37d479bc34223f6797308333d441b",
      "transactionIndex": "0x5",
      "blockHash": "0xaeab470fb4fa5ed59d9f21161d0ffd414e0e83fdaae5984905afc554589376b8",
      "blockNumber": "0x1469f3e",
      "gasUsed": "0x43e42",
      "effectiveGasPrice": "0x9897e0",
      "from": "0xdb90cdb64cff03f254e4015c4f705c3f3c834400",
      "to": "0xc28240056c0318258946729dffb7d072eba375ec",
      "contractAddress": null,
      "l1BaseFeeScalar": "0x1db0",
      "l1BlobBaseFee": "0x1",
      "l1BlobBaseFeeScalar": "0xd2730",
      "l1Fee": "0x18942686ed5",
      "l1GasPrice": "0x1e2ed6b430",
      "l1GasUsed": "0x6b2"
    },
    {
      "status": "0x1",
      "cumulativeGasUsed": "0xa3ddb",
      "logs": [
        {
          "address": "0xc1034988cc35c964d1d6c71e06f7c6f1cc315670",
          "topics": [
            "0xddf252ad1be2c89b69c2b068fc378daa952ba7f163c4a11628f55a4df523b3ef",
            "0x0000000000000000000000000000000000000000000000000000000000000000",
            "0x000000000000000000000000f023722c11efdaa27cc27657d81f7a133ec6cf62"
          ],
          "data": "0x00000000000000000000000000000000000000000000000c6947bcd06a014dc8",
          "blockHash": "0xaeab470fb4fa5ed59d9f21161d0ffd414e0e83fdaae5984905afc554589376b8",
          "blockNumber": "0x1469f3e",
          "transactionHash": "0xc2b72f8e04e95540e1e964a2a6f1ea9b8adf4561d0d07b7cb4a7729d2dfb1057",
          "transactionIndex": "0x6",
          "logIndex": "0x4",
          "removed": false
        }
      ],
      "logsBloom": "0x00000000000000000000000000000000000000000000000000000000000000000000000000000000000000000000000000000000000000000000000080000000000000000000000000000008000000000000000000000000000008000000000000800000020000000000000000000800000000000000000000000010000000000000000000000000040000000000000000000000000000000000000000000000000000000000000000000000000000000400000000000000000000000000000000000002000000000000000000000000020000000000000000000000000020000000000000000000000000000000000000000000000000000000000000000000",
      "type": "0x2",
      "transactionHash": "0xc2b72f8e04e95540e1e964a2a6f1ea9b8adf4561d0d07b7cb4a7729d2dfb1057",
      "transactionIndex": "0x6",
      "blockHash": "0xaeab470fb4fa5ed59d9f21161d0ffd414e0e83fdaae5984905afc554589376b8",
      "blockNumber": "0x1469f3e",
      "gasUsed": "0xc83b",
      "effectiveGasPrice": "0x9897e0",
      "from": "0xdb90cdb64cff03f254e4015c4f705c3f3c834400",
      "to": "0xc1034988cc35c964d1d6c71e06f7c6f1cc315670",
      "contractAddress": null,
      "l1BaseFeeScalar": "0x1db0",
      "l1BlobBaseFee": "0x1",
      "l1BlobBaseFeeScalar": "0xd2730",
      "l1Fee": "0x16f065bc29d",
      "l1GasPrice": "0x1e2ed6b430",
      "l1GasUsed": "0x640"
    },
    {
      "status": "0x1",
      "cumulativeGasUsed": "0xb05da",
      "logs": [
        {
          "address": "0xb2e4e4b2004208dc1b30208d5b6fab2b780dc290",
          "topics": [
            "0xddf252ad1be2c89b69c2b068fc378daa952ba7f163c4a11628f55a4df523b3ef",
            "0x0000000000000000000000000000000000000000000000000000000000000000",
            "0x000000000000000000000000f023722c11efdaa27cc27657d81f7a133ec6cf62"
          ],
          "data": "0x000000000000000000000000000000000000000000000000000000e8d4a51000",
          "blockHash": "0xaeab470fb4fa5ed59d9f21161d0ffd414e0e83fdaae5984905afc554589376b8",
          "blockNumber": "0x1469f3e",
          "transactionHash": "0xb1072d08c7c8a6723f82ba355ad6741c9900e3ee935fd56a8de0e54ad1dcfae0",
          "transactionIndex": "0x7",
          "logIndex": "0x5",
          "removed": false
        }
      ],
      "logsBloom": "0x00000000000000000000000000000000000000000000000000000000000000000000000000000000000000000000000000000000000000000000000080000000000000000000000000000008000000000000000000000000000008000000000000800000020000000000000000000800000000000000020000000010000000000000000000000000000000000000000000000000000000000000000000000000002000000000000000000000000000000000000000000000000000000000000000000002000000000000000000000000000000000000000000000000000020000000000000000000000000000100000000000000000000000000000000000000",
      "type": "0x2",
      "transactionHash": "0xb1072d08c7c8a6723f82ba355ad6741c9900e3ee935fd56a8de0e54ad1dcfae0",
      "transactionIndex": "0x7",
      "blockHash": "0xaeab470fb4fa5ed59d9f21161d0ffd414e0e83fdaae5984905afc554589376b8",
      "blockNumber": "0x1469f3e",
      "gasUsed": "0xc7ff",
      "effectiveGasPrice": "0x9897e0",
      "from": "0xdb90cdb64cff03f254e4015c4f705c3f3c834400",
      "to": "0xb2e4e4b2004208dc1b30208d5b6fab2b780dc290",
      "contractAddress": null,
      "l1BaseFeeScalar": "0x1db0",
      "l1BlobBaseFee": "0x1",
      "l1BlobBaseFeeScalar": "0xd2730",
      "l1Fee": "0x16f065bc29d",
      "l1GasPrice": "0x1e2ed6b430",
      "l1GasUsed": "0x640"
    },
    {
      "status": "0x1",
      "cumulativeGasUsed": "0xca939",
      "logs": [],
      "logsBloom": "0x00000000000000000000000000000000000000000000000000000000000000000000000000000000000000000000000000000000000000000000000000000000000000000000000000000000000000000000000000000000000000000000000000000000000000000000000000000000000000000000000000000000000000000000000000000000000000000000000000000000000000000000000000000000000000000000000000000000000000000000000000000000000000000000000000000000000000000000000000000000000000000000000000000000000000000000000000000000000000000000000000000000000000000000000000000000",
      "type": "0x2",
      "transactionHash": "0xc9d96c539945f0ecb3745022ac063bd3df5ff0b4bb27c85274aabd059dda14d5",
      "transactionIndex": "0x8",
      "blockHash": "0xaeab470fb4fa5ed59d9f21161d0ffd414e0e83fdaae5984905afc554589376b8",
      "blockNumber": "0x1469f3e",
      "gasUsed": "0x1a35f",
      "effectiveGasPrice": "0x9897e0",
      "from": "0xdb90cdb64cff03f254e4015c4f705c3f3c834400",
      "to": "0xf023722c11efdaa27cc27657d81f7a133ec6cf62",
      "contractAddress": null,
      "l1BaseFeeScalar": "0x1db0",
      "l1BlobBaseFee": "0x1",
      "l1BlobBaseFeeScalar": "0xd2730",
      "l1Fee": "0x16f065bc29d",
      "l1GasPrice": "0x1e2ed6b430",
      "l1GasUsed": "0x640"
    },
    {
      "status": "0x1",
      "cumulativeGasUsed": "0x10e771",
      "logs": [],
      "logsBloom": "0x00000000000000000000000000000000000000000000000000000000000000000000000000000000000000000000000000000000000000000000000000000000000000000000000000000000000000000000000000000000000000000000000000000000000000000000000000000000000000000000000000000000000000000000000000000000000000000000000000000000000000000000000000000000000000000000000000000000000000000000000000000000000000000000000000000000000000000000000000000000000000000000000000000000000000000000000000000000000000000000000000000000000000000000000000000000",
      "type": "0x2",
      "transactionHash": "0xc881231b109a2573500335f38b4f9a5e03b0580b5f590a6db2e396429da585ad",
      "transactionIndex": "0x9",
      "blockHash": "0xaeab470fb4fa5ed59d9f21161d0ffd414e0e83fdaae5984905afc554589376b8",
      "blockNumber": "0x1469f3e",
      "gasUsed": "0x43e38",
      "effectiveGasPrice": "0x9897e0",
      "from": "0xdb90cdb64cff03f254e4015c4f705c3f3c834400",
      "to": "0xc28240056c0318258946729dffb7d072eba375ec",
      "contractAddress": null,
      "l1BaseFeeScalar": "0x1db0",
      "l1BlobBaseFee": "0x1",
      "l1BlobBaseFeeScalar": "0xd2730",
      "l1Fee": "0x18942686ed5",
      "l1GasPrice": "0x1e2ed6b430",
      "l1GasUsed": "0x6b2"
    },
    {
      "status": "0x1",
      "cumulativeGasUsed": "0x11afb8",
      "logs": [
        {
          "address": "0x3bbea1538919d20c229b5d21d41cf2fcd17b13db",
          "topics": [
            "0xddf252ad1be2c89b69c2b068fc378daa952ba7f163c4a11628f55a4df523b3ef",
            "0x0000000000000000000000000000000000000000000000000000000000000000",
            "0x000000000000000000000000655c693e68e6457e7ca8900afdaaaef0448eee09"
          ],
          "data": "0x0000000000000000000000000000000000000000000063bee1e994fb9028c828",
          "blockHash": "0xaeab470fb4fa5ed59d9f21161d0ffd414e0e83fdaae5984905afc554589376b8",
          "blockNumber": "0x1469f3e",
          "transactionHash": "0x492de347e558a57849f16b787a512a55a3efdaf869896a34551f9a33849921b6",
          "transactionIndex": "0xa",
          "logIndex": "0x6",
          "removed": false
        }
      ],
      "logsBloom": "0x00000000000000000000000000000000000000002020000000000000000000000000020000000000000000000000000000000000000000000000000000000000000000000000000000000808000000000000000000000000000000000000000000000000020000000000000000000800000000000000000000000010000000000000000000000000000000000000000000000000000000000000000000000000000000000000000000000000000000000000000000040000000000000000000000000002001000000000000000000000000000000000000000000000000020000000000000000000000000000000000000000000000000000000000000000000",
      "type": "0x2",
      "transactionHash": "0x492de347e558a57849f16b787a512a55a3efdaf869896a34551f9a33849921b6",
      "transactionIndex": "0xa",
      "blockHash": "0xaeab470fb4fa5ed59d9f21161d0ffd414e0e83fdaae5984905afc554589376b8",
      "blockNumber": "0x1469f3e",
      "gasUsed": "0xc847",
      "effectiveGasPrice": "0x9897e0",
      "from": "0xdb90cdb64cff03f254e4015c4f705c3f3c834400",
      "to": "0x3bbea1538919d20c229b5d21d41cf2fcd17b13db",
      "contractAddress": null,
      "l1BaseFeeScalar": "0x1db0",
      "l1BlobBaseFee": "0x1",
      "l1BlobBaseFeeScalar": "0xd2730",
      "l1Fee": "0x16f065bc29d",
      "l1GasPrice": "0x1e2ed6b430",
      "l1GasUsed": "0x640"
    },
    {
      "status": "0x1",
      "cumulativeGasUsed": "0x1277b7",
      "logs": [
        {
          "address": "0xb2e4e4b2004208dc1b30208d5b6fab2b780dc290",
          "topics": [
            "0xddf252ad1be2c89b69c2b068fc378daa952ba7f163c4a11628f55a4df523b3ef",
            "0x0000000000000000000000000000000000000000000000000000000000000000",
            "0x000000000000000000000000655c693e68e6457e7ca8900afdaaaef0448eee09"
          ],
          "data": "0x000000000000000000000000000000000000000000000000000000e8d4a51000",
          "blockHash": "0xaeab470fb4fa5ed59d9f21161d0ffd414e0e83fdaae5984905afc554589376b8",
          "blockNumber": "0x1469f3e",
          "transactionHash": "0xd12e7405e53b66d66be678ae2c14d7899b4066d7526020471fad8a5c7eee30d4",
          "transactionIndex": "0xb",
          "logIndex": "0x7",
          "removed": false
        }
      ],
      "logsBloom": "0x00000000000000000000000000000000000000000000000000000000000000000000000000000000000000000000000000000000000000000000000000000000000000000000000000000808000000000000000000000000000000000000000000000000020000000000000000000800000000000000020000000010000000000000000000000000000000000000000000000000000000000000000000000000002000000000000000000000000000000000000000040000000000000000000000000002001000000000000000000000000000000000000000000000000020000000000000000000000000000100000000000000000000000000000000000000",
      "type": "0x2",
      "transactionHash": "0xd12e7405e53b66d66be678ae2c14d7899b4066d7526020471fad8a5c7eee30d4",
      "transactionIndex": "0xb",
      "blockHash": "0xaeab470fb4fa5ed59d9f21161d0ffd414e0e83fdaae5984905afc554589376b8",
      "blockNumber": "0x1469f3e",
      "gasUsed": "0xc7ff",
      "effectiveGasPrice": "0x9897e0",
      "from": "0xdb90cdb64cff03f254e4015c4f705c3f3c834400",
      "to": "0xb2e4e4b2004208dc1b30208d5b6fab2b780dc290",
      "contractAddress": null,
      "l1BaseFeeScalar": "0x1db0",
      "l1BlobBaseFee": "0x1",
      "l1BlobBaseFeeScalar": "0xd2730",
      "l1Fee": "0x16f065bc29d",
      "l1GasPrice": "0x1e2ed6b430",
      "l1GasUsed": "0x640"
    },
    {
      "status": "0x1",
      "cumulativeGasUsed": "0x141b16",
      "logs": [],
      "logsBloom": "0x00000000000000000000000000000000000000000000000000000000000000000000000000000000000000000000000000000000000000000000000000000000000000000000000000000000000000000000000000000000000000000000000000000000000000000000000000000000000000000000000000000000000000000000000000000000000000000000000000000000000000000000000000000000000000000000000000000000000000000000000000000000000000000000000000000000000000000000000000000000000000000000000000000000000000000000000000000000000000000000000000000000000000000000000000000000",
      "type": "0x2",
      "transactionHash": "0xd5c9ee4fe7b02dfd9c13a283d5991904f9a92208ada9a085777916a322027b2a",
      "transactionIndex": "0xc",
      "blockHash": "0xaeab470fb4fa5ed59d9f21161d0ffd414e0e83fdaae5984905afc554589376b8",
      "blockNumber": "0x1469f3e",
      "gasUsed": "0x1a35f",
      "effectiveGasPrice": "0x9897e0",
      "from": "0xdb90cdb64cff03f254e4015c4f705c3f3c834400",
      "to": "0x655c693e68e6457e7ca8900afdaaaef0448eee09",
      "contractAddress": null,
      "l1BaseFeeScalar": "0x1db0",
      "l1BlobBaseFee": "0x1",
      "l1BlobBaseFeeScalar": "0xd2730",
      "l1Fee": "0x16f065bc29d",
      "l1GasPrice": "0x1e2ed6b430",
      "l1GasUsed": "0x640"
    }
  ],
  "libraries": [],
  "pending": [],
  "returns": {},
  "timestamp": 1734613589,
  "chain": 11155420,
  "commit": "150d12a"
}