{
  "transactions": [
    {
      "hash": "0xc3c1663c90b81f1a48bd97baaa1a0b9c00da728ae0c3d24bc9d3956ecde28f65",
      "transactionType": "CREATE",
      "contractName": "MockVelodromeFactory",
      "contractAddress": "0x55323cabffc657fc88d0737d76f80958e9cfd67d",
      "function": null,
      "arguments": null,
      "transaction": {
        "from": "0xdb90cdb64cff03f254e4015c4f705c3f3c834400",
        "gas": "0x170f98",
        "value": "0x0",
        "input": "0x60a0604052348015600e575f5ffd5b506040516019906042565b604051809103905ff0801580156031573d5f5f3e3d5ffd5b506001600160a01b0316608052604f565b610e788061057b83390190565b6080516105146100675f395f61023001526105145ff3fe608060405234801561000f575f5ffd5b506004361061004a575f3560e01c806336bf95a01461004e5780635b16ebb71461007e57806379bc57d5146100b0578063cc56b2c5146100e8575b5f5ffd5b61006161005c366004610454565b61010f565b6040516001600160a01b0390911681526020015b60405180910390f35b6100a061008c366004610494565b60016020525f908152604090205460ff1681565b6040519015158152602001610075565b6100616100be366004610454565b5f60208181529381526040808220855292815282812090935282529020546001600160a01b031681565b6100fb6100f63660046104ad565b610371565b60405162ffffff9091168152602001610075565b5f826001600160a01b0316846001600160a01b0316036101425760405163367558c360e01b815260040160405180910390fd5b5f5f846001600160a01b0316866001600160a01b031610610164578486610167565b85855b90925090506001600160a01b0382166101935760405163d92e233d60e01b815260040160405180910390fd5b6001600160a01b038281165f9081526020818152604080832085851684528252808320881515845290915290205416156101e057604051630188c99160e11b815260040160405180910390fd5b6040516bffffffffffffffffffffffff19606084811b8216602084015283901b16603482015284151560f81b604882015261026690604901604051602081830303815290604052805190602001207f00000000000000000000000000000000000000000000000000000000000000006001600160a01b031661038b90919063ffffffff16565b604051631c9776b560e31b81526001600160a01b038481166004830152838116602483015286151560448301529194509084169063e4bbb5a8906064015f604051808303815f87803b1580156102ba575f5ffd5b505af11580156102cc573d5f5f3e3d5ffd5b5050506001600160a01b039283165f8181526020818152604080832095871680845295825280832098151580845298825280832080549789167fffffffffffffffffffffffff0000000000000000000000000000000000000000988916811790915595835282825280832093835292815282822097825296875281812080549095168417909455918352506001938490529020805460ff191690921790915592915050565b5f8161037e57601e610381565b60055b60ff169392505050565b5f6103975f848461039e565b9392505050565b5f6040517fcc3735a920a3ca505d382bbc545af43d6000803e6038573d6000fd5b3d6000f36060527f5155f3363d3d373d3d363d7f360894a13ba1a3210667c828492db98dca3e207660405261600960205283601e5268603d3d8160223d3973600a5282605f602187f591508161041c5763301164255f526004601cfd5b6040525f6060529392505050565b80356001600160a01b0381168114610440575f5ffd5b919050565b80358015158114610440575f5ffd5b5f5f5f60608486031215610466575f5ffd5b61046f8461042a565b925061047d6020850161042a565b915061048b60408501610445565b90509250925092565b5f602082840312156104a4575f5ffd5b6103978261042a565b5f5f604083850312156104be575f5ffd5b6104c78361042a565b91506104d560208401610445565b9050925092905056fea26469706673582212205f1fada306bb2b354016b6e98b4c4f83e5e025c8ac2dadc9bb589703ff2c14e964736f6c634300081c00336080604052348015600e575f5ffd5b50610e5c8061001c5f395ff3fe608060405234801561000f575f5ffd5b50600436106100c4575f3560e01c8063443cb4bc1161007d578063c5700a0211610058578063c5700a021461018f578063d21220a714610198578063e4bbb5a8146101ab575f5ffd5b8063443cb4bc1461015d5780635a76f25e14610174578063c45a01551461017d575f5ffd5b80630dfe1681116100ad5780630dfe168114610106578063181783581461013157806322be3de114610139575f5ffd5b8063022c0d9f146100c85780630902f1ac146100dd575b5f5ffd5b6100db6100d6366004610b43565b6101be565b005b600354600454600554604080519384526020840192909252908201526060015b60405180910390f35b600154610119906001600160a01b031681565b6040516001600160a01b0390911681526020016100fd565b6100db610709565b60025461014d90600160a01b900460ff1681565b60405190151581526020016100fd565b61016660035481565b6040519081526020016100fd565b61016660045481565b5f54610119906001600160a01b031681565b61016660055481565b600254610119906001600160a01b031681565b6100db6101b9366004610bd1565b6107e9565b841580156101ca575083155b156101e8576040516342301c2360e01b815260040160405180910390fd5b60035460045481871015806101fd5750808610155b1561021b5760405163bb55fd2760e01b815260040160405180910390fd5b6001546002545f9182916001600160a01b03918216919081169089168214806102555750806001600160a01b0316896001600160a01b0316145b1561027357604051630521f43160e31b815260040160405180910390fd5b8a1561028d5761028d6001600160a01b0383168a8d610949565b89156102a7576102a76001600160a01b0382168a8c610949565b861561030f57604051639a7bff7960e01b81526001600160a01b038a1690639a7bff79906102e19033908f908f908e908e90600401610c19565b5f604051808303815f87803b1580156102f8575f5ffd5b505af115801561030a573d5f5f3e3d5ffd5b505050505b6040516370a0823160e01b81523060048201526001600160a01b038316906370a0823190602401602060405180830381865afa158015610351573d5f5f3e3d5ffd5b505050506040513d601f19601f820116820180604052508101906103759190610c65565b6040516370a0823160e01b81523060048201529094506001600160a01b038216906370a0823190602401602060405180830381865afa1580156103ba573d5f5f3e3d5ffd5b505050506040513d601f19601f820116820180604052508101906103de9190610c65565b925050505f89856103ef9190610c90565b83116103fb575f61040f565b6104058a86610c90565b61040f9084610c90565b90505f61041c8a86610c90565b8311610428575f61043c565b6104328a86610c90565b61043c9084610c90565b90508115801561044a575080155b156104685760405163098fb56160e01b815260040160405180910390fd5b6001546002546001600160a01b0391821691168315610533575f5460025460405163cc56b2c560e01b8152306004820152600160a01b90910460ff1615156024820152610533916001600160a01b03169061271090829063cc56b2c590604401602060405180830381865afa1580156104e3573d5f5f3e3d5ffd5b505050506040513d601f19601f820116820180604052508101906105079190610ca3565b6105169062ffffff1688610ccc565b6105209190610ce3565b6001546001600160a01b03169190610949565b82156105eb575f5460025460405163cc56b2c560e01b8152306004820152600160a01b90910460ff16151560248201526105eb916001600160a01b03169061271090829063cc56b2c590604401602060405180830381865afa15801561059b573d5f5f3e3d5ffd5b505050506040513d601f19601f820116820180604052508101906105bf9190610ca3565b6105ce9062ffffff1687610ccc565b6105d89190610ce3565b6002546001600160a01b03169190610949565b6040516370a0823160e01b81523060048201526001600160a01b038316906370a0823190602401602060405180830381865afa15801561062d573d5f5f3e3d5ffd5b505050506040513d601f19601f820116820180604052508101906106519190610c65565b6040516370a0823160e01b81523060048201529096506001600160a01b038216906370a0823190602401602060405180830381865afa158015610696573d5f5f3e3d5ffd5b505050506040513d601f19601f820116820180604052508101906106ba9190610c65565b94506106c688886109b5565b6106d087876109b5565b10156106ef5760405163a932492f60e01b815260040160405180910390fd5b505050600392909255600455505042600555505050505050565b6001546040516370a0823160e01b81523060048201526001600160a01b03909116906370a0823190602401602060405180830381865afa15801561074f573d5f5f3e3d5ffd5b505050506040513d601f19601f820116820180604052508101906107739190610c65565b6003556002546040516370a0823160e01b81523060048201526001600160a01b03909116906370a0823190602401602060405180830381865afa1580156107bc573d5f5f3e3d5ffd5b505050506040513d601f19601f820116820180604052508101906107e09190610c65565b60045542600555565b600280546001600160a01b038085167fffffffffffffffffffffffff0000000000000000000000000000000000000000851515600160a01b0281167fffffffffffffffffffffff000000000000000000000000000000000000000000909416939093171790925560018054928616928216831790555f8054909116331790556040805163313ce56760e01b8152905163313ce567916004808201926020929091908290030181865afa1580156108a1573d5f5f3e3d5ffd5b505050506040513d601f19601f820116820180604052508101906108c59190610d02565b6108d090600a610e05565b600681905550816001600160a01b031663313ce5676040518163ffffffff1660e01b8152600401602060405180830381865afa158015610912573d5f5f3e3d5ffd5b505050506040513d601f19601f820116820180604052508101906109369190610d02565b61094190600a610e05565b600755505050565b604080516001600160a01b038416602482015260448082018490528251808303909101815260649091019091526020810180517bffffffffffffffffffffffffffffffffffffffffffffffffffffffff1663a9059cbb60e01b1790526109b0908490610ab2565b505050565b6002545f90600160a01b900460ff1615610a9f576006545f906109e085670de0b6b3a7640000610ccc565b6109ea9190610ce3565b90505f60075484670de0b6b3a7640000610a049190610ccc565b610a0e9190610ce3565b90505f670de0b6b3a7640000610a248385610ccc565b610a2e9190610ce3565b90505f670de0b6b3a7640000610a448480610ccc565b610a4e9190610ce3565b670de0b6b3a7640000610a618680610ccc565b610a6b9190610ce3565b610a759190610e13565b9050670de0b6b3a7640000610a8a8284610ccc565b610a949190610ce3565b945050505050610aac565b610aa98284610ccc565b90505b92915050565b5f5f60205f8451602086015f885af180610ad1576040513d5f823e3d81fd5b50505f513d91508115610ae8578060011415610af5565b6001600160a01b0384163b155b15610b2257604051635274afe760e01b81526001600160a01b038516600482015260240160405180910390fd5b50505050565b80356001600160a01b0381168114610b3e575f5ffd5b919050565b5f5f5f5f5f60808688031215610b57575f5ffd5b8535945060208601359350610b6e60408701610b28565b9250606086013567ffffffffffffffff811115610b89575f5ffd5b8601601f81018813610b99575f5ffd5b803567ffffffffffffffff811115610baf575f5ffd5b886020828401011115610bc0575f5ffd5b959894975092955050506020019190565b5f5f5f60608486031215610be3575f5ffd5b610bec84610b28565b9250610bfa60208501610b28565b915060408401358015158114610c0e575f5ffd5b809150509250925092565b6001600160a01b038616815284602082015283604082015260806060820152816080820152818360a08301375f81830160a090810191909152601f909201601f19160101949350505050565b5f60208284031215610c75575f5ffd5b5051919050565b634e487b7160e01b5f52601160045260245ffd5b81810381811115610aac57610aac610c7c565b5f60208284031215610cb3575f5ffd5b815162ffffff81168114610cc5575f5ffd5b9392505050565b8082028115828204841417610aac57610aac610c7c565b5f82610cfd57634e487b7160e01b5f52601260045260245ffd5b500490565b5f60208284031215610d12575f5ffd5b815160ff81168114610cc5575f5ffd5b6001815b6001841115610d5d57808504811115610d4157610d41610c7c565b6001841615610d4f57908102905b60019390931c928002610d26565b935093915050565b5f82610d7357506001610aac565b81610d7f57505f610aac565b8160018114610d955760028114610d9f57610dbb565b6001915050610aac565b60ff841115610db057610db0610c7c565b50506001821b610aac565b5060208310610133831016604e8410600b8410161715610dde575081810a610aac565b610dea5f198484610d22565b805f1904821115610dfd57610dfd610c7c565b029392505050565b5f610cc560ff841683610d65565b80820180821115610aac57610aac610c7c56fea2646970667358221220a67185697c71b937c107460a1aff52d04e8191a065567f9c619f588f1f0988fb64736f6c634300081c0033",
        "nonce": "0x2bc",
        "chainId": "0xaa37dc"
      },
      "additionalContracts": [],
      "isFixedGasLimit": false
    },
    {
      "hash": "0x0d8fb3db82b51ad97024f299003e34b03a7d65494aba5a0c37b84bcdfc12b77c",
      "transactionType": "CREATE",
      "contractName": "MockSwapper",
      "contractAddress": "0x3e2d4b69c52932cb5b2a9ee744cb585bb201c771",
      "function": null,
      "arguments": [
        "0x55323CaBffc657FC88D0737d76f80958e9CFd67D"
      ],
      "transaction": {
        "from": "0xdb90cdb64cff03f254e4015c4f705c3f3c834400",
        "gas": "0xf197b",
        "value": "0x0",
        "input": "0x60a060405234801561000f575f5ffd5b50604051610d89380380610d8983398101604081905261002e9161003f565b6001600160a01b031660805261006c565b5f6020828403121561004f575f5ffd5b81516001600160a01b0381168114610065575f5ffd5b9392505050565b608051610cce6100bb5f395f8181609301528181610138015281816101cb0152818161037b0152818161040e015281816104d601528181610569015281816106e401526107770152610cce5ff3fe608060405234801561000f575f5ffd5b5060043610610064575f3560e01c8063a287c7951161004d578063a287c795146100cd578063f873ebe0146100e0578063ff9c8ac6146100f3575f5ffd5b80631000fd6e146100685780633e8c6e431461008e575b5f5ffd5b61007b610076366004610b19565b610106565b6040519081526020015b60405180910390f35b6100b57f000000000000000000000000000000000000000000000000000000000000000081565b6040516001600160a01b039091168152602001610085565b61007b6100db366004610b74565b610349565b61007b6100ee366004610b19565b6104a4565b61007b610101366004610b74565b6106b2565b6040516379bc57d560e01b81526001600160a01b03868116600483015284811660248301525f604483018190529182917f000000000000000000000000000000000000000000000000000000000000000016906379bc57d590606401602060405180830381865afa15801561017d573d5f5f3e3d5ffd5b505050506040513d601f19601f820116820180604052508101906101a19190610bb3565b60405163cc56b2c560e01b81526001600160a01b0380831660048301525f602483018190529293507f0000000000000000000000000000000000000000000000000000000000000000169063cc56b2c590604401602060405180830381865afa158015610210573d5f5f3e3d5ffd5b505050506040513d601f19601f820116820180604052508101906102349190610bd5565b90506001600160a01b038089169087161161025683878362ffffff8616610802565b9350878411156102795760405163098fb56160e01b815260040160405180910390fd5b61028e6001600160a01b038a163385876108ff565b826001600160a01b031663022c0d9f826102a857876102aa565b5f5b836102b5575f6102b7565b885b6040517fffffffff0000000000000000000000000000000000000000000000000000000060e085901b168152600481019290925260248201526001600160a01b0388166044820152608060648201525f608482015260a4015b5f604051808303815f87803b158015610327575f5ffd5b505af1158015610339573d5f5f3e3d5ffd5b5050505050505095945050505050565b6040516379bc57d560e01b81526001600160a01b03848116600483015282811660248301525f604483018190529182917f000000000000000000000000000000000000000000000000000000000000000016906379bc57d590606401602060405180830381865afa1580156103c0573d5f5f3e3d5ffd5b505050506040513d601f19601f820116820180604052508101906103e49190610bb3565b60405163cc56b2c560e01b81526001600160a01b0380831660048301525f602483018190529293507f0000000000000000000000000000000000000000000000000000000000000000169063cc56b2c590604401602060405180830381865afa158015610453573d5f5f3e3d5ffd5b505050506040513d601f19601f820116820180604052508101906104779190610bd5565b90506001600160a01b038087169085161161049983878362ffffff8616610802565b979650505050505050565b6040516379bc57d560e01b81526001600160a01b03868116600483015284811660248301525f604483018190529182917f000000000000000000000000000000000000000000000000000000000000000016906379bc57d590606401602060405180830381865afa15801561051b573d5f5f3e3d5ffd5b505050506040513d601f19601f8201168201806040525081019061053f9190610bb3565b60405163cc56b2c560e01b81526001600160a01b0380831660048301525f602483018190529293507f0000000000000000000000000000000000000000000000000000000000000000169063cc56b2c590604401602060405180830381865afa1580156105ae573d5f5f3e3d5ffd5b505050506040513d601f19601f820116820180604052508101906105d29190610bd5565b90506001600160a01b03808916908716116105f483898362ffffff8616610974565b935085841015610617576040516342301c2360e01b815260040160405180910390fd5b61062c6001600160a01b038a1633858b6108ff565b826001600160a01b031663022c0d9f826106465785610648565b5f5b83610653575f6102b7565b6040517fffffffff0000000000000000000000000000000000000000000000000000000060e084901b1681526004810191909152602481018790526001600160a01b0388166044820152608060648201525f608482015260a401610310565b6040516379bc57d560e01b81526001600160a01b03848116600483015282811660248301525f604483018190529182917f000000000000000000000000000000000000000000000000000000000000000016906379bc57d590606401602060405180830381865afa158015610729573d5f5f3e3d5ffd5b505050506040513d601f19601f8201168201806040525081019061074d9190610bb3565b60405163cc56b2c560e01b81526001600160a01b0380831660048301525f602483018190529293507f0000000000000000000000000000000000000000000000000000000000000000169063cc56b2c590604401602060405180830381865afa1580156107bc573d5f5f3e3d5ffd5b505050506040513d601f19601f820116820180604052508101906107e09190610bd5565b90506001600160a01b038087169085161161049983878362ffffff8616610974565b5f5f5f866001600160a01b0316630902f1ac6040518163ffffffff1660e01b8152600401606060405180830381865afa158015610841573d5f5f3e3d5ffd5b505050506040513d601f19601f820116820180604052508101906108659190610bf7565b5091509150846108b45761087b84612710610c36565b6108858784610c36565b61088f9190610c4f565b6108998783610c4f565b6108a590612710610c4f565b6108af9190610c66565b6108f4565b6108c084612710610c36565b6108ca8783610c36565b6108d49190610c4f565b6108de8784610c4f565b6108ea90612710610c4f565b6108f49190610c66565b610499906001610c85565b604080516001600160a01b0385811660248301528416604482015260648082018490528251808303909101815260849091019091526020810180517bffffffffffffffffffffffffffffffffffffffffffffffffffffffff166323b872dd60e01b17905261096e908590610a92565b50505050565b5f5f5f866001600160a01b0316630902f1ac6040518163ffffffff1660e01b8152600401606060405180830381865afa1580156109b3573d5f5f3e3d5ffd5b505050506040513d601f19601f820116820180604052508101906109d79190610bf7565b509150915084610a3c576109ed84612710610c36565b6109f79087610c4f565b610a0382612710610c4f565b610a0d9190610c85565b610a1985612710610c36565b610a238885610c4f565b610a2d9190610c4f565b610a379190610c66565b610499565b610a4884612710610c36565b610a529087610c4f565b610a5e83612710610c4f565b610a689190610c85565b610a7485612710610c36565b610a7e8884610c4f565b610a889190610c4f565b6104999190610c66565b5f5f60205f8451602086015f885af180610ab1576040513d5f823e3d81fd5b50505f513d91508115610ac8578060011415610ad5565b6001600160a01b0384163b155b1561096e57604051635274afe760e01b81526001600160a01b038516600482015260240160405180910390fd5b6001600160a01b0381168114610b16575f5ffd5b50565b5f5f5f5f5f60a08688031215610b2d575f5ffd5b8535610b3881610b02565b9450602086013593506040860135610b4f81610b02565b9250606086013591506080860135610b6681610b02565b809150509295509295909350565b5f5f5f60608486031215610b86575f5ffd5b8335610b9181610b02565b9250602084013591506040840135610ba881610b02565b809150509250925092565b5f60208284031215610bc3575f5ffd5b8151610bce81610b02565b9392505050565b5f60208284031215610be5575f5ffd5b815162ffffff81168114610bce575f5ffd5b5f5f5f60608486031215610c09575f5ffd5b5050815160208301516040909301519094929350919050565b634e487b7160e01b5f52601160045260245ffd5b81810381811115610c4957610c49610c22565b92915050565b8082028115828204841417610c4957610c49610c22565b5f82610c8057634e487b7160e01b5f52601260045260245ffd5b500490565b80820180821115610c4957610c49610c2256fea26469706673582212200e855a287536c5cf692ecebee7ebb9ea86970ee65cd0853e72fea489429d14e764736f6c634300081c003300000000000000000000000055323cabffc657fc88d0737d76f80958e9cfd67d",
        "nonce": "0x2bd",
        "chainId": "0xaa37dc"
      },
      "additionalContracts": [],
      "isFixedGasLimit": false
    },
    {
      "hash": "0x63b3a8d94f59c9d086ffe14f571fd8c73caadc8b21be227a20d50514dc9c8ac7",
      "transactionType": "CALL",
      "contractName": "MockVelodromeFactory",
      "contractAddress": "0x55323cabffc657fc88d0737d76f80958e9cfd67d",
      "function": "createPool(address,address,bool)",
      "arguments": [
        "0x2fB5672a2736946201E6343c799A553c83f38c7F",
        "0xb2e4e4B2004208dC1B30208d5B6FaB2b780DC290",
        "false"
      ],
      "transaction": {
        "from": "0xdb90cdb64cff03f254e4015c4f705c3f3c834400",
        "to": "0x55323cabffc657fc88d0737d76f80958e9cfd67d",
        "gas": "0x5dbda",
        "value": "0x0",
        "input": "0x36bf95a00000000000000000000000002fb5672a2736946201e6343c799a553c83f38c7f000000000000000000000000b2e4e4b2004208dc1b30208d5b6fab2b780dc2900000000000000000000000000000000000000000000000000000000000000000",
        "nonce": "0x2be",
        "chainId": "0xaa37dc"
      },
      "additionalContracts": [],
      "isFixedGasLimit": false
    },
    {
      "hash": "0xdd148e6e3ed973e2cd5b3e71775fc511496589cfd6f87de49e95b641bbf3c2f1",
      "transactionType": "CALL",
      "contractName": null,
      "contractAddress": "0x2fb5672a2736946201e6343c799a553c83f38c7f",
      "function": "mint(address,uint256)",
      "arguments": [
        "0xB24F49242bFd9F691bb071bba19299Ddb0498337",
        "307067779070874314087"
      ],
      "transaction": {
        "from": "0xdb90cdb64cff03f254e4015c4f705c3f3c834400",
        "to": "0x2fb5672a2736946201e6343c799a553c83f38c7f",
        "gas": "0x124d5",
        "value": "0x0",
        "input": "0x40c10f19000000000000000000000000b24f49242bfd9f691bb071bba19299ddb0498337000000000000000000000000000000000000000000000010a56be6266f976567",
        "nonce": "0x2bf",
        "chainId": "0xaa37dc"
      },
      "additionalContracts": [],
      "isFixedGasLimit": false
    },
    {
      "hash": "0x0285827ad49b82a3715191d12ea429e59f92b61bf25579690960066581210a16",
      "transactionType": "CALL",
      "contractName": null,
      "contractAddress": "0xb2e4e4b2004208dc1b30208d5b6fab2b780dc290",
      "function": "mint(address,uint256)",
      "arguments": [
        "0xB24F49242bFd9F691bb071bba19299Ddb0498337",
        "1000000000000"
      ],
      "transaction": {
        "from": "0xdb90cdb64cff03f254e4015c4f705c3f3c834400",
        "to": "0xb2e4e4b2004208dc1b30208d5b6fab2b780dc290",
        "gas": "0x1143d",
        "value": "0x0",
        "input": "0x40c10f19000000000000000000000000b24f49242bfd9f691bb071bba19299ddb0498337000000000000000000000000000000000000000000000000000000e8d4a51000",
        "nonce": "0x2c0",
        "chainId": "0xaa37dc"
      },
      "additionalContracts": [],
      "isFixedGasLimit": false
    },
    {
      "hash": "0x3684642633b15eab5c6622a465ec4912959a60b38d0ab11f0a31f9e6c6bc1508",
      "transactionType": "CALL",
      "contractName": null,
      "contractAddress": "0xb24f49242bfd9f691bb071bba19299ddb0498337",
      "function": "poke()",
      "arguments": [],
      "transaction": {
        "from": "0xdb90cdb64cff03f254e4015c4f705c3f3c834400",
        "to": "0xb24f49242bfd9f691bb071bba19299ddb0498337",
        "gas": "0x26534",
        "value": "0x0",
        "input": "0x18178358",
        "nonce": "0x2c1",
        "chainId": "0xaa37dc"
      },
      "additionalContracts": [],
      "isFixedGasLimit": false
    },
    {
      "hash": "0xf67b6ca69c499ccd84541b16bda16832d230f845dfab623f1ed37db43bbc3bd8",
      "transactionType": "CALL",
      "contractName": "MockVelodromeFactory",
      "contractAddress": "0x55323cabffc657fc88d0737d76f80958e9cfd67d",
      "function": "createPool(address,address,bool)",
      "arguments": [
        "0x91A2d012cd88f0D17078D221b0F36AF7a2e45602",
        "0xb2e4e4B2004208dC1B30208d5B6FaB2b780DC290",
        "false"
      ],
      "transaction": {
        "from": "0xdb90cdb64cff03f254e4015c4f705c3f3c834400",
        "to": "0x55323cabffc657fc88d0737d76f80958e9cfd67d",
        "gas": "0x5dbda",
        "value": "0x0",
        "input": "0x36bf95a000000000000000000000000091a2d012cd88f0d17078d221b0f36af7a2e45602000000000000000000000000b2e4e4b2004208dc1b30208d5b6fab2b780dc2900000000000000000000000000000000000000000000000000000000000000000",
        "nonce": "0x2c2",
        "chainId": "0xaa37dc"
      },
      "additionalContracts": [],
      "isFixedGasLimit": false
    },
    {
      "hash": "0xd1b305551e0d624d36e7f1c6dd6fa290c19b9a8812e9455ef02a9c99e22683d9",
      "transactionType": "CALL",
      "contractName": null,
      "contractAddress": "0x91a2d012cd88f0d17078d221b0f36af7a2e45602",
      "function": "mint(address,uint256)",
      "arguments": [
        "0x5E5943516ad0C6CBB0b3B1C0372e04c5157a6036",
        "999442720733346293440240"
      ],
      "transaction": {
        "from": "0xdb90cdb64cff03f254e4015c4f705c3f3c834400",
        "to": "0x91a2d012cd88f0d17078d221b0f36af7a2e45602",
        "gas": "0x114a1",
        "value": "0x0",
        "input": "0x40c10f190000000000000000000000005e5943516ad0c6cbb0b3b1c0372e04c5157a603600000000000000000000000000000000000000000000d3a3e601207fb0a15ef0",
        "nonce": "0x2c3",
        "chainId": "0xaa37dc"
      },
      "additionalContracts": [],
      "isFixedGasLimit": false
    },
    {
      "hash": "0xc55080f95bc2aab0bf40b9c007c6c2aefcd99fa106f23af2b3be2734b4b211ce",
      "transactionType": "CALL",
      "contractName": null,
      "contractAddress": "0xb2e4e4b2004208dc1b30208d5b6fab2b780dc290",
      "function": "mint(address,uint256)",
      "arguments": [
        "0x5E5943516ad0C6CBB0b3B1C0372e04c5157a6036",
        "1000000000000"
      ],
      "transaction": {
        "from": "0xdb90cdb64cff03f254e4015c4f705c3f3c834400",
        "to": "0xb2e4e4b2004208dc1b30208d5b6fab2b780dc290",
        "gas": "0x1143d",
        "value": "0x0",
        "input": "0x40c10f190000000000000000000000005e5943516ad0c6cbb0b3b1c0372e04c5157a6036000000000000000000000000000000000000000000000000000000e8d4a51000",
        "nonce": "0x2c4",
        "chainId": "0xaa37dc"
      },
      "additionalContracts": [],
      "isFixedGasLimit": false
    },
    {
      "hash": "0x66f06ac131112c6fa763a1fcc535e79387486a5102ef11e979a04f84aa03d935",
      "transactionType": "CALL",
      "contractName": null,
      "contractAddress": "0x5e5943516ad0c6cbb0b3b1c0372e04c5157a6036",
      "function": "poke()",
      "arguments": [],
      "transaction": {
        "from": "0xdb90cdb64cff03f254e4015c4f705c3f3c834400",
        "to": "0x5e5943516ad0c6cbb0b3b1c0372e04c5157a6036",
        "gas": "0x26534",
        "value": "0x0",
        "input": "0x18178358",
        "nonce": "0x2c5",
        "chainId": "0xaa37dc"
      },
      "additionalContracts": [],
      "isFixedGasLimit": false
    },
    {
      "hash": "0x6e3eaf8e5d46b563ea5f8052f859b38c0c520e96e283755c30991794b802ff42",
      "transactionType": "CALL",
      "contractName": "MockVelodromeFactory",
      "contractAddress": "0x55323cabffc657fc88d0737d76f80958e9cfd67d",
      "function": "createPool(address,address,bool)",
      "arguments": [
        "0x531784fd9aBa26c965de4423D331de8d89cD6ab3",
        "0xb2e4e4B2004208dC1B30208d5B6FaB2b780DC290",
        "false"
      ],
      "transaction": {
        "from": "0xdb90cdb64cff03f254e4015c4f705c3f3c834400",
        "to": "0x55323cabffc657fc88d0737d76f80958e9cfd67d",
        "gas": "0x5dbda",
        "value": "0x0",
        "input": "0x36bf95a0000000000000000000000000531784fd9aba26c965de4423d331de8d89cd6ab3000000000000000000000000b2e4e4b2004208dc1b30208d5b6fab2b780dc2900000000000000000000000000000000000000000000000000000000000000000",
        "nonce": "0x2c6",
        "chainId": "0xaa37dc"
      },
      "additionalContracts": [],
      "isFixedGasLimit": false
    },
    {
      "hash": "0x512092a6941b1d62b9564d9c4e284c71cd34deee82ab56cb23fb7b8cf2ae14f7",
      "transactionType": "CALL",
      "contractName": null,
      "contractAddress": "0x531784fd9aba26c965de4423d331de8d89cd6ab3",
      "function": "mint(address,uint256)",
      "arguments": [
        "0xc37A8105259F68614C0Ae91162e914d31f668Bbb",
        "999900009999"
      ],
      "transaction": {
        "from": "0xdb90cdb64cff03f254e4015c4f705c3f3c834400",
        "to": "0x531784fd9aba26c965de4423d331de8d89cd6ab3",
        "gas": "0x1248f",
        "value": "0x0",
        "input": "0x40c10f19000000000000000000000000c37a8105259f68614c0ae91162e914d31f668bbb000000000000000000000000000000000000000000000000000000e8ceaf560f",
        "nonce": "0x2c7",
        "chainId": "0xaa37dc"
      },
      "additionalContracts": [],
      "isFixedGasLimit": false
    },
    {
      "hash": "0xdd60796f65b4a4666dea556cee90311e89e036cd7a24268a78fa7b4e80f671ff",
      "transactionType": "CALL",
      "contractName": null,
      "contractAddress": "0xb2e4e4b2004208dc1b30208d5b6fab2b780dc290",
      "function": "mint(address,uint256)",
      "arguments": [
        "0xc37A8105259F68614C0Ae91162e914d31f668Bbb",
        "1000000000000"
      ],
      "transaction": {
        "from": "0xdb90cdb64cff03f254e4015c4f705c3f3c834400",
        "to": "0xb2e4e4b2004208dc1b30208d5b6fab2b780dc290",
        "gas": "0x1143d",
        "value": "0x0",
        "input": "0x40c10f19000000000000000000000000c37a8105259f68614c0ae91162e914d31f668bbb000000000000000000000000000000000000000000000000000000e8d4a51000",
        "nonce": "0x2c8",
        "chainId": "0xaa37dc"
      },
      "additionalContracts": [],
      "isFixedGasLimit": false
    },
    {
      "hash": "0x2c0fb97fc14a3e923b0fb12a8b625e68f499c56504cc035b246b6357ab81f247",
      "transactionType": "CALL",
      "contractName": null,
      "contractAddress": "0xc37a8105259f68614c0ae91162e914d31f668bbb",
      "function": "poke()",
      "arguments": [],
      "transaction": {
        "from": "0xdb90cdb64cff03f254e4015c4f705c3f3c834400",
        "to": "0xc37a8105259f68614c0ae91162e914d31f668bbb",
        "gas": "0x26534",
        "value": "0x0",
        "input": "0x18178358",
        "nonce": "0x2c9",
        "chainId": "0xaa37dc"
      },
      "additionalContracts": [],
      "isFixedGasLimit": false
    },
    {
      "hash": "0x59b9eb035f94cf810470cdcae4e941189250d79da88cc052ec1f384a4977ea97",
      "transactionType": "CALL",
      "contractName": "MockVelodromeFactory",
      "contractAddress": "0x55323cabffc657fc88d0737d76f80958e9cfd67d",
      "function": "createPool(address,address,bool)",
      "arguments": [
        "0x44bE3dCba56171159d8672f768df707E5d2Eeaa1",
        "0xb2e4e4B2004208dC1B30208d5B6FaB2b780DC290",
        "false"
      ],
      "transaction": {
        "from": "0xdb90cdb64cff03f254e4015c4f705c3f3c834400",
        "to": "0x55323cabffc657fc88d0737d76f80958e9cfd67d",
        "gas": "0x5dbda",
        "value": "0x0",
        "input": "0x36bf95a000000000000000000000000044be3dcba56171159d8672f768df707e5d2eeaa1000000000000000000000000b2e4e4b2004208dc1b30208d5b6fab2b780dc2900000000000000000000000000000000000000000000000000000000000000000",
        "nonce": "0x2ca",
        "chainId": "0xaa37dc"
      },
      "additionalContracts": [],
      "isFixedGasLimit": false
    },
    {
      "hash": "0x427931bd875612bbdac0300f35c5646fd86eab00d7b4bbf669dfe30c30baee97",
      "transactionType": "CALL",
      "contractName": null,
      "contractAddress": "0x44be3dcba56171159d8672f768df707e5d2eeaa1",
      "function": "mint(address,uint256)",
      "arguments": [
        "0xA4d6aaBcFC3fF53EAE34793549208DC1E6f1234c",
        "1067915518"
      ],
      "transaction": {
        "from": "0xdb90cdb64cff03f254e4015c4f705c3f3c834400",
        "to": "0x44be3dcba56171159d8672f768df707e5d2eeaa1",
        "gas": "0x1143d",
        "value": "0x0",
        "input": "0x40c10f19000000000000000000000000a4d6aabcfc3ff53eae34793549208dc1e6f1234c000000000000000000000000000000000000000000000000000000003fa718fe",
        "nonce": "0x2cb",
        "chainId": "0xaa37dc"
      },
      "additionalContracts": [],
      "isFixedGasLimit": false
    },
    {
      "hash": "0x5460eaed7d509d5133887a570c6581f476ccc806aae583e8ba25875f2a37a2d0",
      "transactionType": "CALL",
      "contractName": null,
      "contractAddress": "0xb2e4e4b2004208dc1b30208d5b6fab2b780dc290",
      "function": "mint(address,uint256)",
      "arguments": [
        "0xA4d6aaBcFC3fF53EAE34793549208DC1E6f1234c",
        "1000000000000"
      ],
      "transaction": {
        "from": "0xdb90cdb64cff03f254e4015c4f705c3f3c834400",
        "to": "0xb2e4e4b2004208dc1b30208d5b6fab2b780dc290",
        "gas": "0x1143d",
        "value": "0x0",
        "input": "0x40c10f19000000000000000000000000a4d6aabcfc3ff53eae34793549208dc1e6f1234c000000000000000000000000000000000000000000000000000000e8d4a51000",
        "nonce": "0x2cc",
        "chainId": "0xaa37dc"
      },
      "additionalContracts": [],
      "isFixedGasLimit": false
    },
    {
      "hash": "0xeebc9ba5cba62603f0d2521a0db128ba91dd1d4188871ff53224a1685f354126",
      "transactionType": "CALL",
      "contractName": null,
      "contractAddress": "0xa4d6aabcfc3ff53eae34793549208dc1e6f1234c",
      "function": "poke()",
      "arguments": [],
      "transaction": {
        "from": "0xdb90cdb64cff03f254e4015c4f705c3f3c834400",
        "to": "0xa4d6aabcfc3ff53eae34793549208dc1e6f1234c",
        "gas": "0x26534",
        "value": "0x0",
        "input": "0x18178358",
        "nonce": "0x2cd",
        "chainId": "0xaa37dc"
      },
      "additionalContracts": [],
      "isFixedGasLimit": false
    },
    {
      "hash": "0x908510d2bd4d0b5377b721cfd82ba41b445f19e797fe0613a4e8a3cd74574120",
      "transactionType": "CALL",
      "contractName": "MockVelodromeFactory",
      "contractAddress": "0x55323cabffc657fc88d0737d76f80958e9cfd67d",
      "function": "createPool(address,address,bool)",
      "arguments": [
        "0xc1034988Cc35C964D1D6C71e06f7c6f1CC315670",
        "0xb2e4e4B2004208dC1B30208d5B6FaB2b780DC290",
        "false"
      ],
      "transaction": {
        "from": "0xdb90cdb64cff03f254e4015c4f705c3f3c834400",
        "to": "0x55323cabffc657fc88d0737d76f80958e9cfd67d",
        "gas": "0x63424",
        "value": "0x0",
        "input": "0x36bf95a0000000000000000000000000c1034988cc35c964d1d6c71e06f7c6f1cc315670000000000000000000000000b2e4e4b2004208dc1b30208d5b6fab2b780dc2900000000000000000000000000000000000000000000000000000000000000000",
        "nonce": "0x2ce",
        "chainId": "0xaa37dc"
      },
      "additionalContracts": [],
      "isFixedGasLimit": false
    },
    {
      "hash": "0xa095e44f8e552d9bc88ab51577074ec84475ea7545d1545d2db03257b156da82",
      "transactionType": "CALL",
      "contractName": null,
      "contractAddress": "0xc1034988cc35c964d1d6c71e06f7c6f1cc315670",
      "function": "mint(address,uint256)",
      "arguments": [
        "0xa5d80C0204bD414E802046b155CF492FC26C6e6B",
        "259000271102366979947"
      ],
      "transaction": {
        "from": "0xdb90cdb64cff03f254e4015c4f705c3f3c834400",
        "to": "0xc1034988cc35c964d1d6c71e06f7c6f1cc315670",
        "gas": "0x124d5",
        "value": "0x0",
        "input": "0x40c10f19000000000000000000000000a5d80c0204bd414e802046b155cf492fc26c6e6b00000000000000000000000000000000000000000000000e0a59ce534a74176b",
        "nonce": "0x2cf",
        "chainId": "0xaa37dc"
      },
      "additionalContracts": [],
      "isFixedGasLimit": false
    },
    {
      "hash": "0xdaeef312d79d358680b673cbb72c6f85fe2e2629829c629887aa5ab71b43a801",
      "transactionType": "CALL",
      "contractName": null,
      "contractAddress": "0xb2e4e4b2004208dc1b30208d5b6fab2b780dc290",
      "function": "mint(address,uint256)",
      "arguments": [
        "0xa5d80C0204bD414E802046b155CF492FC26C6e6B",
        "1000000000000"
      ],
      "transaction": {
        "from": "0xdb90cdb64cff03f254e4015c4f705c3f3c834400",
        "to": "0xb2e4e4b2004208dc1b30208d5b6fab2b780dc290",
        "gas": "0x1143d",
        "value": "0x0",
        "input": "0x40c10f19000000000000000000000000a5d80c0204bd414e802046b155cf492fc26c6e6b000000000000000000000000000000000000000000000000000000e8d4a51000",
        "nonce": "0x2d0",
        "chainId": "0xaa37dc"
      },
      "additionalContracts": [],
      "isFixedGasLimit": false
    },
    {
      "hash": "0x893d2516231214a9ab2fee9e12caec8913cbf64d059c7fa4a606e3e03d5b2fed",
      "transactionType": "CALL",
      "contractName": null,
      "contractAddress": "0xa5d80c0204bd414e802046b155cf492fc26c6e6b",
      "function": "poke()",
      "arguments": [],
      "transaction": {
        "from": "0xdb90cdb64cff03f254e4015c4f705c3f3c834400",
        "to": "0xa5d80c0204bd414e802046b155cf492fc26c6e6b",
        "gas": "0x26534",
        "value": "0x0",
        "input": "0x18178358",
        "nonce": "0x2d1",
        "chainId": "0xaa37dc"
      },
      "additionalContracts": [],
      "isFixedGasLimit": false
    },
    {
      "hash": "0x984ad89da4289cbaa66b90dd2fcb135d31319c94e245f9eb7add923dd73d1209",
      "transactionType": "CALL",
      "contractName": "MockVelodromeFactory",
      "contractAddress": "0x55323cabffc657fc88d0737d76f80958e9cfd67d",
      "function": "createPool(address,address,bool)",
      "arguments": [
        "0x3BBeA1538919d20C229B5D21D41cf2FCd17b13dB",
        "0xb2e4e4B2004208dC1B30208d5B6FaB2b780DC290",
        "false"
      ],
      "transaction": {
        "from": "0xdb90cdb64cff03f254e4015c4f705c3f3c834400",
        "to": "0x55323cabffc657fc88d0737d76f80958e9cfd67d",
        "gas": "0x5dbda",
        "value": "0x0",
        "input": "0x36bf95a00000000000000000000000003bbea1538919d20c229b5d21d41cf2fcd17b13db000000000000000000000000b2e4e4b2004208dc1b30208d5b6fab2b780dc2900000000000000000000000000000000000000000000000000000000000000000",
        "nonce": "0x2d2",
        "chainId": "0xaa37dc"
      },
      "additionalContracts": [],
      "isFixedGasLimit": false
    },
    {
      "hash": "0x8dc923a339a57b8319fa745bc819fa1e2217dfa2ae699d8d3778b335c50947b2",
      "transactionType": "CALL",
      "contractName": null,
      "contractAddress": "0x3bbea1538919d20c229b5d21d41cf2fcd17b13db",
      "function": "mint(address,uint256)",
      "arguments": [
        "0xB486426f9e73422bD7Bb9778a91d227A3588616F",
        "570349102643805926329842"
      ],
      "transaction": {
        "from": "0xdb90cdb64cff03f254e4015c4f705c3f3c834400",
        "to": "0x3bbea1538919d20c229b5d21d41cf2fcd17b13db",
        "gas": "0x114a1",
        "value": "0x0",
        "input": "0x40c10f19000000000000000000000000b486426f9e73422bd7bb9778a91d227a3588616f0000000000000000000000000000000000000000000078c6afd2a77c4a360df2",
        "nonce": "0x2d3",
        "chainId": "0xaa37dc"
      },
      "additionalContracts": [],
      "isFixedGasLimit": false
    },
    {
      "hash": "0xef2e83f12cc75d67dad18dc5ae13638671e0687be8f197e4c10dd5fae5da7fc9",
      "transactionType": "CALL",
      "contractName": null,
      "contractAddress": "0xb2e4e4b2004208dc1b30208d5b6fab2b780dc290",
      "function": "mint(address,uint256)",
      "arguments": [
        "0xB486426f9e73422bD7Bb9778a91d227A3588616F",
        "1000000000000"
      ],
      "transaction": {
        "from": "0xdb90cdb64cff03f254e4015c4f705c3f3c834400",
        "to": "0xb2e4e4b2004208dc1b30208d5b6fab2b780dc290",
        "gas": "0x1143d",
        "value": "0x0",
        "input": "0x40c10f19000000000000000000000000b486426f9e73422bd7bb9778a91d227a3588616f000000000000000000000000000000000000000000000000000000e8d4a51000",
        "nonce": "0x2d4",
        "chainId": "0xaa37dc"
      },
      "additionalContracts": [],
      "isFixedGasLimit": false
    },
    {
      "hash": "0xa80590bba11b3fd2ba3c336d09129f2f4afef88229efa94054028598740d7afa",
      "transactionType": "CALL",
      "contractName": null,
      "contractAddress": "0xb486426f9e73422bd7bb9778a91d227a3588616f",
      "function": "poke()",
      "arguments": [],
      "transaction": {
        "from": "0xdb90cdb64cff03f254e4015c4f705c3f3c834400",
        "to": "0xb486426f9e73422bd7bb9778a91d227a3588616f",
        "gas": "0x26534",
        "value": "0x0",
        "input": "0x18178358",
        "nonce": "0x2d5",
        "chainId": "0xaa37dc"
      },
      "additionalContracts": [],
      "isFixedGasLimit": false
    }
  ],
  "receipts": [
    {
      "status": "0x1",
      "cumulativeGasUsed": "0x15ec7b",
      "logs": [],
      "logsBloom": "0x00000000000000000000000000000000000000000000000000000000000000000000000000000000000000000000000000000000000000000000000000000000000000000000000000000000000000000000000000000000000000000000000000000000000000000000000000000000000000000000000000000000000000000000000000000000000000000000000000000000000000000000000000000000000000000000000000000000000000000000000000000000000000000000000000000000000000000000000000000000000000000000000000000000000000000000000000000000000000000000000000000000000000000000000000000000",
      "type": "0x2",
      "transactionHash": "0xc3c1663c90b81f1a48bd97baaa1a0b9c00da728ae0c3d24bc9d3956ecde28f65",
      "transactionIndex": "0x4",
      "blockHash": "0x5d67e2470e7b0d995927a8e82437ff65fc074f06d5c38373b4f2923cc7f3f78c",
      "blockNumber": "0x1553da8",
      "gasUsed": "0x11bd3a",
      "effectiveGasPrice": "0x989790",
      "from": "0xdb90cdb64cff03f254e4015c4f705c3f3c834400",
      "to": null,
      "contractAddress": "0x55323cabffc657fc88d0737d76f80958e9cfd67d",
      "l1BaseFeeScalar": "0x1db0",
      "l1BlobBaseFee": "0x825681fe2d",
      "l1BlobBaseFeeScalar": "0xd2730",
      "l1Fee": "0x4c0e1eb14e878",
      "l1GasPrice": "0x33f873e06",
      "l1GasUsed": "0xacb0"
    },
    {
      "status": "0x1",
      "cumulativeGasUsed": "0x2189ee",
      "logs": [],
      "logsBloom": "0x00000000000000000000000000000000000000000000000000000000000000000000000000000000000000000000000000000000000000000000000000000000000000000000000000000000000000000000000000000000000000000000000000000000000000000000000000000000000000000000000000000000000000000000000000000000000000000000000000000000000000000000000000000000000000000000000000000000000000000000000000000000000000000000000000000000000000000000000000000000000000000000000000000000000000000000000000000000000000000000000000000000000000000000000000000000",
      "type": "0x2",
      "transactionHash": "0x0d8fb3db82b51ad97024f299003e34b03a7d65494aba5a0c37b84bcdfc12b77c",
      "transactionIndex": "0x5",
      "blockHash": "0x5d67e2470e7b0d995927a8e82437ff65fc074f06d5c38373b4f2923cc7f3f78c",
      "blockNumber": "0x1553da8",
      "gasUsed": "0xb9d73",
      "effectiveGasPrice": "0x989790",
      "from": "0xdb90cdb64cff03f254e4015c4f705c3f3c834400",
      "to": null,
      "contractAddress": "0x3e2d4b69c52932cb5b2a9ee744cb585bb201c771",
      "l1BaseFeeScalar": "0x1db0",
      "l1BlobBaseFee": "0x825681fe2d",
      "l1BlobBaseFeeScalar": "0xd2730",
      "l1Fee": "0x2a352e943be99",
      "l1GasPrice": "0x33f873e06",
      "l1GasUsed": "0x5fd6"
    },
    {
      "status": "0x1",
      "cumulativeGasUsed": "0x25c7cd",
      "logs": [],
      "logsBloom": "0x00000000000000000000000000000000000000000000000000000000000000000000000000000000000000000000000000000000000000000000000000000000000000000000000000000000000000000000000000000000000000000000000000000000000000000000000000000000000000000000000000000000000000000000000000000000000000000000000000000000000000000000000000000000000000000000000000000000000000000000000000000000000000000000000000000000000000000000000000000000000000000000000000000000000000000000000000000000000000000000000000000000000000000000000000000000",
      "type": "0x2",
      "transactionHash": "0x63b3a8d94f59c9d086ffe14f571fd8c73caadc8b21be227a20d50514dc9c8ac7",
      "transactionIndex": "0x6",
      "blockHash": "0x5d67e2470e7b0d995927a8e82437ff65fc074f06d5c38373b4f2923cc7f3f78c",
      "blockNumber": "0x1553da8",
      "gasUsed": "0x43ddf",
      "effectiveGasPrice": "0x989790",
      "from": "0xdb90cdb64cff03f254e4015c4f705c3f3c834400",
      "to": "0x55323cabffc657fc88d0737d76f80958e9cfd67d",
      "contractAddress": null,
      "l1BaseFeeScalar": "0x1db0",
      "l1BlobBaseFee": "0x825681fe2d",
      "l1BlobBaseFeeScalar": "0xd2730",
      "l1Fee": "0x2f30868108cf",
      "l1GasPrice": "0x33f873e06",
      "l1GasUsed": "0x6b2"
    },
    {
      "status": "0x1",
      "cumulativeGasUsed": "0x269008",
      "logs": [
        {
          "address": "0x2fb5672a2736946201e6343c799a553c83f38c7f",
          "topics": [
            "0xddf252ad1be2c89b69c2b068fc378daa952ba7f163c4a11628f55a4df523b3ef",
            "0x0000000000000000000000000000000000000000000000000000000000000000",
            "0x000000000000000000000000b24f49242bfd9f691bb071bba19299ddb0498337"
          ],
          "data": "0x000000000000000000000000000000000000000000000010a56be6266f976567",
          "blockHash": "0x5d67e2470e7b0d995927a8e82437ff65fc074f06d5c38373b4f2923cc7f3f78c",
          "blockNumber": "0x1553da8",
          "transactionHash": "0xdd148e6e3ed973e2cd5b3e71775fc511496589cfd6f87de49e95b641bbf3c2f1",
          "transactionIndex": "0x7",
          "logIndex": "0x4",
          "removed": false
        }
      ],
      "logsBloom": "0x00000000000000100000080000000000000000000000000000000000000000000000000000000000000000000000000000000000000000000000000000000000000000000000000000000008000000000000000000000000000000000000800000000000020000000000000000000800000000000000000000000010000000000000000000000000000000000000000000000000000000000000000000000000000000000000000000000000000000000000000000000000010000000000000000000002000000000000001000000000000000000000000000000000000020000000000000000000000000000000000000100000000000000000000000000000",
      "type": "0x2",
      "transactionHash": "0xdd148e6e3ed973e2cd5b3e71775fc511496589cfd6f87de49e95b641bbf3c2f1",
      "transactionIndex": "0x7",
      "blockHash": "0x5d67e2470e7b0d995927a8e82437ff65fc074f06d5c38373b4f2923cc7f3f78c",
      "blockNumber": "0x1553da8",
      "gasUsed": "0xc83b",
      "effectiveGasPrice": "0x989790",
      "from": "0xdb90cdb64cff03f254e4015c4f705c3f3c834400",
      "to": "0x2fb5672a2736946201e6343c799a553c83f38c7f",
      "contractAddress": null,
      "l1BaseFeeScalar": "0x1db0",
      "l1BlobBaseFee": "0x825681fe2d",
      "l1BlobBaseFeeScalar": "0xd2730",
      "l1Fee": "0x2c0aa05ae451",
      "l1GasPrice": "0x33f873e06",
      "l1GasUsed": "0x640"
    },
    {
      "status": "0x1",
      "cumulativeGasUsed": "0x275807",
      "logs": [
        {
          "address": "0xb2e4e4b2004208dc1b30208d5b6fab2b780dc290",
          "topics": [
            "0xddf252ad1be2c89b69c2b068fc378daa952ba7f163c4a11628f55a4df523b3ef",
            "0x0000000000000000000000000000000000000000000000000000000000000000",
            "0x000000000000000000000000b24f49242bfd9f691bb071bba19299ddb0498337"
          ],
          "data": "0x000000000000000000000000000000000000000000000000000000e8d4a51000",
          "blockHash": "0x5d67e2470e7b0d995927a8e82437ff65fc074f06d5c38373b4f2923cc7f3f78c",
          "blockNumber": "0x1553da8",
          "transactionHash": "0x0285827ad49b82a3715191d12ea429e59f92b61bf25579690960066581210a16",
          "transactionIndex": "0x8",
          "logIndex": "0x5",
          "removed": false
        }
      ],
      "logsBloom": "0x00000000000000100000000000000000000000000000000000000000000000000000000000000000000000000000000000000000000000000000000000000000000000000000000000000008000000000000000000000000000000000000800000000000020000000000000000000800000000000000020000000010000000000000000000000000000000000000000000000000000000000000000000000000002000000000000000000000000000000000000000000000000000000000000000000002000000000000000000000000000000000000000000000000000020000000000000000000000000000100000000100000000000000000000000000000",
      "type": "0x2",
      "transactionHash": "0x0285827ad49b82a3715191d12ea429e59f92b61bf25579690960066581210a16",
      "transactionIndex": "0x8",
      "blockHash": "0x5d67e2470e7b0d995927a8e82437ff65fc074f06d5c38373b4f2923cc7f3f78c",
      "blockNumber": "0x1553da8",
      "gasUsed": "0xc7ff",
      "effectiveGasPrice": "0x989790",
      "from": "0xdb90cdb64cff03f254e4015c4f705c3f3c834400",
      "to": "0xb2e4e4b2004208dc1b30208d5b6fab2b780dc290",
      "contractAddress": null,
      "l1BaseFeeScalar": "0x1db0",
      "l1BlobBaseFee": "0x825681fe2d",
      "l1BlobBaseFeeScalar": "0xd2730",
      "l1Fee": "0x2c0aa05ae451",
      "l1GasPrice": "0x33f873e06",
      "l1GasUsed": "0x640"
    },
    {
      "status": "0x1",
      "cumulativeGasUsed": "0x28fb50",
      "logs": [],
      "logsBloom": "0x00000000000000000000000000000000000000000000000000000000000000000000000000000000000000000000000000000000000000000000000000000000000000000000000000000000000000000000000000000000000000000000000000000000000000000000000000000000000000000000000000000000000000000000000000000000000000000000000000000000000000000000000000000000000000000000000000000000000000000000000000000000000000000000000000000000000000000000000000000000000000000000000000000000000000000000000000000000000000000000000000000000000000000000000000000000",
      "type": "0x2",
      "transactionHash": "0x3684642633b15eab5c6622a465ec4912959a60b38d0ab11f0a31f9e6c6bc1508",
      "transactionIndex": "0x9",
      "blockHash": "0x5d67e2470e7b0d995927a8e82437ff65fc074f06d5c38373b4f2923cc7f3f78c",
      "blockNumber": "0x1553da8",
      "gasUsed": "0x1a349",
      "effectiveGasPrice": "0x989790",
      "from": "0xdb90cdb64cff03f254e4015c4f705c3f3c834400",
      "to": "0xb24f49242bfd9f691bb071bba19299ddb0498337",
      "contractAddress": null,
      "l1BaseFeeScalar": "0x1db0",
      "l1BlobBaseFee": "0x825681fe2d",
      "l1BlobBaseFeeScalar": "0xd2730",
      "l1Fee": "0x2c0aa05ae451",
      "l1GasPrice": "0x33f873e06",
      "l1GasUsed": "0x640"
    },
    {
      "status": "0x1",
      "cumulativeGasUsed": "0x2d392f",
      "logs": [],
      "logsBloom": "0x00000000000000000000000000000000000000000000000000000000000000000000000000000000000000000000000000000000000000000000000000000000000000000000000000000000000000000000000000000000000000000000000000000000000000000000000000000000000000000000000000000000000000000000000000000000000000000000000000000000000000000000000000000000000000000000000000000000000000000000000000000000000000000000000000000000000000000000000000000000000000000000000000000000000000000000000000000000000000000000000000000000000000000000000000000000",
      "type": "0x2",
      "transactionHash": "0xf67b6ca69c499ccd84541b16bda16832d230f845dfab623f1ed37db43bbc3bd8",
      "transactionIndex": "0xa",
      "blockHash": "0x5d67e2470e7b0d995927a8e82437ff65fc074f06d5c38373b4f2923cc7f3f78c",
      "blockNumber": "0x1553da8",
      "gasUsed": "0x43ddf",
      "effectiveGasPrice": "0x989790",
      "from": "0xdb90cdb64cff03f254e4015c4f705c3f3c834400",
      "to": "0x55323cabffc657fc88d0737d76f80958e9cfd67d",
      "contractAddress": null,
      "l1BaseFeeScalar": "0x1db0",
      "l1BlobBaseFee": "0x825681fe2d",
      "l1BlobBaseFeeScalar": "0xd2730",
      "l1Fee": "0x2f30868108cf",
      "l1GasPrice": "0x33f873e06",
      "l1GasUsed": "0x6b2"
    },
    {
      "status": "0x1",
      "cumulativeGasUsed": "0x2e0176",
      "logs": [
        {
          "address": "0x91a2d012cd88f0d17078d221b0f36af7a2e45602",
          "topics": [
            "0xddf252ad1be2c89b69c2b068fc378daa952ba7f163c4a11628f55a4df523b3ef",
            "0x0000000000000000000000000000000000000000000000000000000000000000",
            "0x0000000000000000000000005e5943516ad0c6cbb0b3b1c0372e04c5157a6036"
          ],
          "data": "0x00000000000000000000000000000000000000000000d3a3e601207fb0a15ef0",
          "blockHash": "0x5d67e2470e7b0d995927a8e82437ff65fc074f06d5c38373b4f2923cc7f3f78c",
          "blockNumber": "0x1553da8",
          "transactionHash": "0xd1b305551e0d624d36e7f1c6dd6fa290c19b9a8812e9455ef02a9c99e22683d9",
          "transactionIndex": "0xb",
          "logIndex": "0x6",
          "removed": false
        }
      ],
      "logsBloom": "0x00000000000000000000000000000000000000000000000000000000000000000000000000000000000000000000000000000000000000000000000000000000000000000000000000000048008000000000000000000000000000000000000000000000020000000000000000000800000000000000000000000010000000000000000102000000000000000000000000000000000000000000000000000000000000000000000000000000000000000000800000000000000000000000000000000002000000000000000000000000000000000000000000000000000020000000000000000000000000000000000000000000000000000000002000000000",
      "type": "0x2",
      "transactionHash": "0xd1b305551e0d624d36e7f1c6dd6fa290c19b9a8812e9455ef02a9c99e22683d9",
      "transactionIndex": "0xb",
      "blockHash": "0x5d67e2470e7b0d995927a8e82437ff65fc074f06d5c38373b4f2923cc7f3f78c",
      "blockNumber": "0x1553da8",
      "gasUsed": "0xc847",
      "effectiveGasPrice": "0x989790",
      "from": "0xdb90cdb64cff03f254e4015c4f705c3f3c834400",
      "to": "0x91a2d012cd88f0d17078d221b0f36af7a2e45602",
      "contractAddress": null,
      "l1BaseFeeScalar": "0x1db0",
      "l1BlobBaseFee": "0x825681fe2d",
      "l1BlobBaseFeeScalar": "0xd2730",
      "l1Fee": "0x2c0aa05ae451",
      "l1GasPrice": "0x33f873e06",
      "l1GasUsed": "0x640"
    },
    {
      "status": "0x1",
      "cumulativeGasUsed": "0x2ec975",
      "logs": [
        {
          "address": "0xb2e4e4b2004208dc1b30208d5b6fab2b780dc290",
          "topics": [
            "0xddf252ad1be2c89b69c2b068fc378daa952ba7f163c4a11628f55a4df523b3ef",
            "0x0000000000000000000000000000000000000000000000000000000000000000",
            "0x0000000000000000000000005e5943516ad0c6cbb0b3b1c0372e04c5157a6036"
          ],
          "data": "0x000000000000000000000000000000000000000000000000000000e8d4a51000",
          "blockHash": "0x5d67e2470e7b0d995927a8e82437ff65fc074f06d5c38373b4f2923cc7f3f78c",
          "blockNumber": "0x1553da8",
          "transactionHash": "0xc55080f95bc2aab0bf40b9c007c6c2aefcd99fa106f23af2b3be2734b4b211ce",
          "transactionIndex": "0xc",
          "logIndex": "0x7",
          "removed": false
        }
      ],
      "logsBloom": "0x00000000000000000000000000000000000000000000000000000000000000000000000000000000000000000000000000000000000000000000000000000000000000000000000000000008008000000000000000000000000000000000000000000000020000000000000000000800000000000000020000000010000000000000000002000000000000000000000000000000000000000000000000000000002000000000000000000000000000000000000000000000000000000000000000000002000000000000000000000000000000000000000000000000000020000000000000000000000000000100000000000000000000000000002000000000",
      "type": "0x2",
      "transactionHash": "0xc55080f95bc2aab0bf40b9c007c6c2aefcd99fa106f23af2b3be2734b4b211ce",
      "transactionIndex": "0xc",
      "blockHash": "0x5d67e2470e7b0d995927a8e82437ff65fc074f06d5c38373b4f2923cc7f3f78c",
      "blockNumber": "0x1553da8",
      "gasUsed": "0xc7ff",
      "effectiveGasPrice": "0x989790",
      "from": "0xdb90cdb64cff03f254e4015c4f705c3f3c834400",
      "to": "0xb2e4e4b2004208dc1b30208d5b6fab2b780dc290",
      "contractAddress": null,
      "l1BaseFeeScalar": "0x1db0",
      "l1BlobBaseFee": "0x825681fe2d",
      "l1BlobBaseFeeScalar": "0xd2730",
      "l1Fee": "0x2c0aa05ae451",
      "l1GasPrice": "0x33f873e06",
      "l1GasUsed": "0x640"
    },
    {
      "status": "0x1",
      "cumulativeGasUsed": "0x306cbe",
      "logs": [],
      "logsBloom": "0x00000000000000000000000000000000000000000000000000000000000000000000000000000000000000000000000000000000000000000000000000000000000000000000000000000000000000000000000000000000000000000000000000000000000000000000000000000000000000000000000000000000000000000000000000000000000000000000000000000000000000000000000000000000000000000000000000000000000000000000000000000000000000000000000000000000000000000000000000000000000000000000000000000000000000000000000000000000000000000000000000000000000000000000000000000000",
      "type": "0x2",
      "transactionHash": "0x66f06ac131112c6fa763a1fcc535e79387486a5102ef11e979a04f84aa03d935",
      "transactionIndex": "0xd",
      "blockHash": "0x5d67e2470e7b0d995927a8e82437ff65fc074f06d5c38373b4f2923cc7f3f78c",
      "blockNumber": "0x1553da8",
      "gasUsed": "0x1a349",
      "effectiveGasPrice": "0x989790",
      "from": "0xdb90cdb64cff03f254e4015c4f705c3f3c834400",
      "to": "0x5e5943516ad0c6cbb0b3b1c0372e04c5157a6036",
      "contractAddress": null,
      "l1BaseFeeScalar": "0x1db0",
      "l1BlobBaseFee": "0x825681fe2d",
      "l1BlobBaseFeeScalar": "0xd2730",
      "l1Fee": "0x2c0aa05ae451",
      "l1GasPrice": "0x33f873e06",
      "l1GasUsed": "0x640"
    },
    {
      "status": "0x1",
      "cumulativeGasUsed": "0x34aa9d",
      "logs": [],
      "logsBloom": "0x00000000000000000000000000000000000000000000000000000000000000000000000000000000000000000000000000000000000000000000000000000000000000000000000000000000000000000000000000000000000000000000000000000000000000000000000000000000000000000000000000000000000000000000000000000000000000000000000000000000000000000000000000000000000000000000000000000000000000000000000000000000000000000000000000000000000000000000000000000000000000000000000000000000000000000000000000000000000000000000000000000000000000000000000000000000",
      "type": "0x2",
      "transactionHash": "0x6e3eaf8e5d46b563ea5f8052f859b38c0c520e96e283755c30991794b802ff42",
      "transactionIndex": "0xe",
      "blockHash": "0x5d67e2470e7b0d995927a8e82437ff65fc074f06d5c38373b4f2923cc7f3f78c",
      "blockNumber": "0x1553da8",
      "gasUsed": "0x43ddf",
      "effectiveGasPrice": "0x989790",
      "from": "0xdb90cdb64cff03f254e4015c4f705c3f3c834400",
      "to": "0x55323cabffc657fc88d0737d76f80958e9cfd67d",
      "contractAddress": null,
      "l1BaseFeeScalar": "0x1db0",
      "l1BlobBaseFee": "0x825681fe2d",
      "l1BlobBaseFeeScalar": "0xd2730",
      "l1Fee": "0x2f30868108cf",
      "l1GasPrice": "0x33f873e06",
      "l1GasUsed": "0x6b2"
    },
    {
      "status": "0x1",
      "cumulativeGasUsed": "0x3572a8",
      "logs": [
        {
          "address": "0x531784fd9aba26c965de4423d331de8d89cd6ab3",
          "topics": [
            "0xddf252ad1be2c89b69c2b068fc378daa952ba7f163c4a11628f55a4df523b3ef",
            "0x0000000000000000000000000000000000000000000000000000000000000000",
            "0x000000000000000000000000c37a8105259f68614c0ae91162e914d31f668bbb"
          ],
          "data": "0x000000000000000000000000000000000000000000000000000000e8ceaf560f",
          "blockHash": "0x5d67e2470e7b0d995927a8e82437ff65fc074f06d5c38373b4f2923cc7f3f78c",
          "blockNumber": "0x1553da8",
          "transactionHash": "0x512092a6941b1d62b9564d9c4e284c71cd34deee82ab56cb23fb7b8cf2ae14f7",
          "transactionIndex": "0xf",
          "logIndex": "0x8",
          "removed": false
        }
      ],
      "logsBloom": "0x00000000080000000000000000000000000000000000000000000000000000000000000000000000000000000000000000000000000000000000000000000000000000000000000004008008000000000000000000000000000000000000000000000000020000000000000000000800000000000000000000000010000000000000000000000000000000000001000000000000000000000000000000000000000000000000000000000000000000000000000000000000000000000000000000000002008000000000000000000000000000000800000000000000000020000000000000000000000000000000000000000000000000000000000000000000",
      "type": "0x2",
      "transactionHash": "0x512092a6941b1d62b9564d9c4e284c71cd34deee82ab56cb23fb7b8cf2ae14f7",
      "transactionIndex": "0xf",
      "blockHash": "0x5d67e2470e7b0d995927a8e82437ff65fc074f06d5c38373b4f2923cc7f3f78c",
      "blockNumber": "0x1553da8",
      "gasUsed": "0xc80b",
      "effectiveGasPrice": "0x989790",
      "from": "0xdb90cdb64cff03f254e4015c4f705c3f3c834400",
      "to": "0x531784fd9aba26c965de4423d331de8d89cd6ab3",
      "contractAddress": null,
      "l1BaseFeeScalar": "0x1db0",
      "l1BlobBaseFee": "0x825681fe2d",
      "l1BlobBaseFeeScalar": "0xd2730",
      "l1Fee": "0x2c0aa05ae451",
      "l1GasPrice": "0x33f873e06",
      "l1GasUsed": "0x640"
    },
    {
      "status": "0x1",
      "cumulativeGasUsed": "0x363aa7",
      "logs": [
        {
          "address": "0xb2e4e4b2004208dc1b30208d5b6fab2b780dc290",
          "topics": [
            "0xddf252ad1be2c89b69c2b068fc378daa952ba7f163c4a11628f55a4df523b3ef",
            "0x0000000000000000000000000000000000000000000000000000000000000000",
            "0x000000000000000000000000c37a8105259f68614c0ae91162e914d31f668bbb"
          ],
          "data": "0x000000000000000000000000000000000000000000000000000000e8d4a51000",
          "blockHash": "0x5d67e2470e7b0d995927a8e82437ff65fc074f06d5c38373b4f2923cc7f3f78c",
          "blockNumber": "0x1553da8",
          "transactionHash": "0xdd60796f65b4a4666dea556cee90311e89e036cd7a24268a78fa7b4e80f671ff",
          "transactionIndex": "0x10",
          "logIndex": "0x9",
          "removed": false
        }
      ],
      "logsBloom": "0x00000000000000000000000000000000000000000000000000000000000000000000000000000000000000000000000000000000000000000000000000000000000000000000000004000008000000000000000000000000000000000000000000000000020000000000000000000800000000000000020000000010000000000000000000000000000000000001000000000000000000000000000000000000002000000000000000000000000000000000000000000000000000000000000000000002008000000000000000000000000000000000000000000000000020000000000000000000000000000100000000000000000000000000000000000000",
      "type": "0x2",
      "transactionHash": "0xdd60796f65b4a4666dea556cee90311e89e036cd7a24268a78fa7b4e80f671ff",
      "transactionIndex": "0x10",
      "blockHash": "0x5d67e2470e7b0d995927a8e82437ff65fc074f06d5c38373b4f2923cc7f3f78c",
      "blockNumber": "0x1553da8",
      "gasUsed": "0xc7ff",
      "effectiveGasPrice": "0x989790",
      "from": "0xdb90cdb64cff03f254e4015c4f705c3f3c834400",
      "to": "0xb2e4e4b2004208dc1b30208d5b6fab2b780dc290",
      "contractAddress": null,
      "l1BaseFeeScalar": "0x1db0",
      "l1BlobBaseFee": "0x825681fe2d",
      "l1BlobBaseFeeScalar": "0xd2730",
      "l1Fee": "0x2c0aa05ae451",
      "l1GasPrice": "0x33f873e06",
      "l1GasUsed": "0x640"
    },
    {
      "status": "0x1",
      "cumulativeGasUsed": "0x3d33a",
      "logs": [],
      "logsBloom": "0x00000000000000000000000000000000000000000000000000000000000000000000000000000000000000000000000000000000000000000000000000000000000000000000000000000000000000000000000000000000000000000000000000000000000000000000000000000000000000000000000000000000000000000000000000000000000000000000000000000000000000000000000000000000000000000000000000000000000000000000000000000000000000000000000000000000000000000000000000000000000000000000000000000000000000000000000000000000000000000000000000000000000000000000000000000000",
      "type": "0x2",
      "transactionHash": "0x2c0fb97fc14a3e923b0fb12a8b625e68f499c56504cc035b246b6357ab81f247",
      "transactionIndex": "0x2",
      "blockHash": "0xf0865f4943a4f07e07f868869df82a64ac42ec84327b8bb4d609fffd0bf1c4fc",
      "blockNumber": "0x1553da9",
      "gasUsed": "0x1a349",
      "effectiveGasPrice": "0x989790",
      "from": "0xdb90cdb64cff03f254e4015c4f705c3f3c834400",
      "to": "0xc37a8105259f68614c0ae91162e914d31f668bbb",
      "contractAddress": null,
      "l1BaseFeeScalar": "0x1db0",
      "l1BlobBaseFee": "0x787eb9bbc3",
      "l1BlobBaseFeeScalar": "0xd2730",
      "l1Fee": "0x28b648caeb35",
      "l1GasPrice": "0x2edc1f3b4",
      "l1GasUsed": "0x640"
    },
    {
      "status": "0x1",
      "cumulativeGasUsed": "0x81119",
      "logs": [],
      "logsBloom": "0x00000000000000000000000000000000000000000000000000000000000000000000000000000000000000000000000000000000000000000000000000000000000000000000000000000000000000000000000000000000000000000000000000000000000000000000000000000000000000000000000000000000000000000000000000000000000000000000000000000000000000000000000000000000000000000000000000000000000000000000000000000000000000000000000000000000000000000000000000000000000000000000000000000000000000000000000000000000000000000000000000000000000000000000000000000000",
      "type": "0x2",
      "transactionHash": "0x59b9eb035f94cf810470cdcae4e941189250d79da88cc052ec1f384a4977ea97",
      "transactionIndex": "0x3",
      "blockHash": "0xf0865f4943a4f07e07f868869df82a64ac42ec84327b8bb4d609fffd0bf1c4fc",
      "blockNumber": "0x1553da9",
      "gasUsed": "0x43ddf",
      "effectiveGasPrice": "0x989790",
      "from": "0xdb90cdb64cff03f254e4015c4f705c3f3c834400",
      "to": "0x55323cabffc657fc88d0737d76f80958e9cfd67d",
      "contractAddress": null,
      "l1BaseFeeScalar": "0x1db0",
      "l1BlobBaseFee": "0x787eb9bbc3",
      "l1BlobBaseFeeScalar": "0xd2730",
      "l1Fee": "0x2b9f42414fe6",
      "l1GasPrice": "0x2edc1f3b4",
      "l1GasUsed": "0x6b2"
    },
    {
      "status": "0x1",
      "cumulativeGasUsed": "0x8d918",
      "logs": [
        {
          "address": "0x44be3dcba56171159d8672f768df707e5d2eeaa1",
          "topics": [
            "0xddf252ad1be2c89b69c2b068fc378daa952ba7f163c4a11628f55a4df523b3ef",
            "0x0000000000000000000000000000000000000000000000000000000000000000",
            "0x000000000000000000000000a4d6aabcfc3ff53eae34793549208dc1e6f1234c"
          ],
          "data": "0x000000000000000000000000000000000000000000000000000000003fa718fe",
          "blockHash": "0xf0865f4943a4f07e07f868869df82a64ac42ec84327b8bb4d609fffd0bf1c4fc",
          "blockNumber": "0x1553da9",
          "transactionHash": "0x427931bd875612bbdac0300f35c5646fd86eab00d7b4bbf669dfe30c30baee97",
          "transactionIndex": "0x4",
          "logIndex": "0x2",
          "removed": false
        }
      ],
      "logsBloom": "0x00000000000000000000000000100000000000000000000000000000000000000000000000000000000000000000000000000000000000000002000000000000000000000000000000000008000000000000000000000000000000000040000000000000020000000000000000000800000000000000000000000010000000000000000000000000000000000000000000000000000000000000000000000000000000000000000000000000000000000000000000000000000000000000000000000002000000000000000000000000000000000000000000000000000020000000000000000008000000000000000000000000000000010000000000000000",
      "type": "0x2",
      "transactionHash": "0x427931bd875612bbdac0300f35c5646fd86eab00d7b4bbf669dfe30c30baee97",
      "transactionIndex": "0x4",
      "blockHash": "0xf0865f4943a4f07e07f868869df82a64ac42ec84327b8bb4d609fffd0bf1c4fc",
      "blockNumber": "0x1553da9",
      "gasUsed": "0xc7ff",
      "effectiveGasPrice": "0x989790",
      "from": "0xdb90cdb64cff03f254e4015c4f705c3f3c834400",
      "to": "0x44be3dcba56171159d8672f768df707e5d2eeaa1",
      "contractAddress": null,
      "l1BaseFeeScalar": "0x1db0",
      "l1BlobBaseFee": "0x787eb9bbc3",
      "l1BlobBaseFeeScalar": "0xd2730",
      "l1Fee": "0x28b648caeb35",
      "l1GasPrice": "0x2edc1f3b4",
      "l1GasUsed": "0x640"
    },
    {
      "status": "0x1",
      "cumulativeGasUsed": "0x9a117",
      "logs": [
        {
          "address": "0xb2e4e4b2004208dc1b30208d5b6fab2b780dc290",
          "topics": [
            "0xddf252ad1be2c89b69c2b068fc378daa952ba7f163c4a11628f55a4df523b3ef",
            "0x0000000000000000000000000000000000000000000000000000000000000000",
            "0x000000000000000000000000a4d6aabcfc3ff53eae34793549208dc1e6f1234c"
          ],
          "data": "0x000000000000000000000000000000000000000000000000000000e8d4a51000",
          "blockHash": "0xf0865f4943a4f07e07f868869df82a64ac42ec84327b8bb4d609fffd0bf1c4fc",
          "blockNumber": "0x1553da9",
          "transactionHash": "0x5460eaed7d509d5133887a570c6581f476ccc806aae583e8ba25875f2a37a2d0",
          "transactionIndex": "0x5",
          "logIndex": "0x3",
          "removed": false
        }
      ],
      "logsBloom": "0x00000000000000000000000000100000000000000000000000000000000000000000000000000000000000000000000000000000000000000000000000000000000000000000000000000008000000000000000000000000000000000040000000000000020000000000000000000800000000000000020000000010000000000000000000000000000000000000000000000000000000000000000000000000002000000000000000000000000000000000000000000000000000000000000000000002000000000000000000000000000000000000000000000000000020000000000000000008000000000100000000000000000000000000000000000000",
      "type": "0x2",
      "transactionHash": "0x5460eaed7d509d5133887a570c6581f476ccc806aae583e8ba25875f2a37a2d0",
      "transactionIndex": "0x5",
      "blockHash": "0xf0865f4943a4f07e07f868869df82a64ac42ec84327b8bb4d609fffd0bf1c4fc",
      "blockNumber": "0x1553da9",
      "gasUsed": "0xc7ff",
      "effectiveGasPrice": "0x989790",
      "from": "0xdb90cdb64cff03f254e4015c4f705c3f3c834400",
      "to": "0xb2e4e4b2004208dc1b30208d5b6fab2b780dc290",
      "contractAddress": null,
      "l1BaseFeeScalar": "0x1db0",
      "l1BlobBaseFee": "0x787eb9bbc3",
      "l1BlobBaseFeeScalar": "0xd2730",
      "l1Fee": "0x28b648caeb35",
      "l1GasPrice": "0x2edc1f3b4",
      "l1GasUsed": "0x640"
    },
    {
      "status": "0x1",
      "cumulativeGasUsed": "0xb4460",
      "logs": [],
      "logsBloom": "0x00000000000000000000000000000000000000000000000000000000000000000000000000000000000000000000000000000000000000000000000000000000000000000000000000000000000000000000000000000000000000000000000000000000000000000000000000000000000000000000000000000000000000000000000000000000000000000000000000000000000000000000000000000000000000000000000000000000000000000000000000000000000000000000000000000000000000000000000000000000000000000000000000000000000000000000000000000000000000000000000000000000000000000000000000000000",
      "type": "0x2",
      "transactionHash": "0xeebc9ba5cba62603f0d2521a0db128ba91dd1d4188871ff53224a1685f354126",
      "transactionIndex": "0x6",
      "blockHash": "0xf0865f4943a4f07e07f868869df82a64ac42ec84327b8bb4d609fffd0bf1c4fc",
      "blockNumber": "0x1553da9",
      "gasUsed": "0x1a349",
      "effectiveGasPrice": "0x989790",
      "from": "0xdb90cdb64cff03f254e4015c4f705c3f3c834400",
      "to": "0xa4d6aabcfc3ff53eae34793549208dc1e6f1234c",
      "contractAddress": null,
      "l1BaseFeeScalar": "0x1db0",
      "l1BlobBaseFee": "0x787eb9bbc3",
      "l1BlobBaseFeeScalar": "0xd2730",
      "l1Fee": "0x28b648caeb35",
      "l1GasPrice": "0x2edc1f3b4",
      "l1GasUsed": "0x640"
    },
    {
      "status": "0x1",
      "cumulativeGasUsed": "0xf8249",
      "logs": [],
      "logsBloom": "0x00000000000000000000000000000000000000000000000000000000000000000000000000000000000000000000000000000000000000000000000000000000000000000000000000000000000000000000000000000000000000000000000000000000000000000000000000000000000000000000000000000000000000000000000000000000000000000000000000000000000000000000000000000000000000000000000000000000000000000000000000000000000000000000000000000000000000000000000000000000000000000000000000000000000000000000000000000000000000000000000000000000000000000000000000000000",
      "type": "0x2",
      "transactionHash": "0x908510d2bd4d0b5377b721cfd82ba41b445f19e797fe0613a4e8a3cd74574120",
      "transactionIndex": "0x7",
      "blockHash": "0xf0865f4943a4f07e07f868869df82a64ac42ec84327b8bb4d609fffd0bf1c4fc",
      "blockNumber": "0x1553da9",
      "gasUsed": "0x43de9",
      "effectiveGasPrice": "0x989790",
      "from": "0xdb90cdb64cff03f254e4015c4f705c3f3c834400",
      "to": "0x55323cabffc657fc88d0737d76f80958e9cfd67d",
      "contractAddress": null,
      "l1BaseFeeScalar": "0x1db0",
      "l1BlobBaseFee": "0x787eb9bbc3",
      "l1BlobBaseFeeScalar": "0xd2730",
      "l1Fee": "0x2b9f42414fe6",
      "l1GasPrice": "0x2edc1f3b4",
      "l1GasUsed": "0x6b2"
    },
    {
      "status": "0x1",
      "cumulativeGasUsed": "0x104a84",
      "logs": [
        {
          "address": "0xc1034988cc35c964d1d6c71e06f7c6f1cc315670",
          "topics": [
            "0xddf252ad1be2c89b69c2b068fc378daa952ba7f163c4a11628f55a4df523b3ef",
            "0x0000000000000000000000000000000000000000000000000000000000000000",
            "0x000000000000000000000000a5d80c0204bd414e802046b155cf492fc26c6e6b"
          ],
          "data": "0x00000000000000000000000000000000000000000000000e0a59ce534a74176b",
          "blockHash": "0xf0865f4943a4f07e07f868869df82a64ac42ec84327b8bb4d609fffd0bf1c4fc",
          "blockNumber": "0x1553da9",
          "transactionHash": "0xa095e44f8e552d9bc88ab51577074ec84475ea7545d1545d2db03257b156da82",
          "transactionIndex": "0x8",
          "logIndex": "0x4",
          "removed": false
        }
      ],
      "logsBloom": "0x00000000000000000000000000000000000000000000000000000000000000000000000000000000000000000000000000000000000000000000000000000000000004000000000000000008000000000000000000000000000000000000000000000000020000000000000000000800000000000000000000000010000000000000000000000000140000000000000000000000000000080000000000000000000000000000000000000000000000000400000000000000000000000000000000000002000000000000000000000000020000000000000000000000000020000000000000000000000000000000000000000000000000000000000000000000",
      "type": "0x2",
      "transactionHash": "0xa095e44f8e552d9bc88ab51577074ec84475ea7545d1545d2db03257b156da82",
      "transactionIndex": "0x8",
      "blockHash": "0xf0865f4943a4f07e07f868869df82a64ac42ec84327b8bb4d609fffd0bf1c4fc",
      "blockNumber": "0x1553da9",
      "gasUsed": "0xc83b",
      "effectiveGasPrice": "0x989790",
      "from": "0xdb90cdb64cff03f254e4015c4f705c3f3c834400",
      "to": "0xc1034988cc35c964d1d6c71e06f7c6f1cc315670",
      "contractAddress": null,
      "l1BaseFeeScalar": "0x1db0",
      "l1BlobBaseFee": "0x787eb9bbc3",
      "l1BlobBaseFeeScalar": "0xd2730",
      "l1Fee": "0x28b648caeb35",
      "l1GasPrice": "0x2edc1f3b4",
      "l1GasUsed": "0x640"
    },
    {
      "status": "0x1",
      "cumulativeGasUsed": "0x111283",
      "logs": [
        {
          "address": "0xb2e4e4b2004208dc1b30208d5b6fab2b780dc290",
          "topics": [
            "0xddf252ad1be2c89b69c2b068fc378daa952ba7f163c4a11628f55a4df523b3ef",
            "0x0000000000000000000000000000000000000000000000000000000000000000",
            "0x000000000000000000000000a5d80c0204bd414e802046b155cf492fc26c6e6b"
          ],
          "data": "0x000000000000000000000000000000000000000000000000000000e8d4a51000",
          "blockHash": "0xf0865f4943a4f07e07f868869df82a64ac42ec84327b8bb4d609fffd0bf1c4fc",
          "blockNumber": "0x1553da9",
          "transactionHash": "0xdaeef312d79d358680b673cbb72c6f85fe2e2629829c629887aa5ab71b43a801",
          "transactionIndex": "0x9",
          "logIndex": "0x5",
          "removed": false
        }
      ],
      "logsBloom": "0x00000000000000000000000000000000000000000000000000000000000000000000000000000000000000000000000000000000000000000000000000000000000004000000000000000008000000000000000000000000000000000000000000000000020000000000000000000800000000000000020000000010000000000000000000000000100000000000000000000000000000080000000000000000002000000000000000000000000000000000000000000000000000000000000000000002000000000000000000000000000000000000000000000000000020000000000000000000000000000100000000000000000000000000000000000000",
      "type": "0x2",
      "transactionHash": "0xdaeef312d79d358680b673cbb72c6f85fe2e2629829c629887aa5ab71b43a801",
      "transactionIndex": "0x9",
      "blockHash": "0xf0865f4943a4f07e07f868869df82a64ac42ec84327b8bb4d609fffd0bf1c4fc",
      "blockNumber": "0x1553da9",
      "gasUsed": "0xc7ff",
      "effectiveGasPrice": "0x989790",
      "from": "0xdb90cdb64cff03f254e4015c4f705c3f3c834400",
      "to": "0xb2e4e4b2004208dc1b30208d5b6fab2b780dc290",
      "contractAddress": null,
      "l1BaseFeeScalar": "0x1db0",
      "l1BlobBaseFee": "0x787eb9bbc3",
      "l1BlobBaseFeeScalar": "0xd2730",
      "l1Fee": "0x28b648caeb35",
      "l1GasPrice": "0x2edc1f3b4",
      "l1GasUsed": "0x640"
    },
    {
      "status": "0x1",
      "cumulativeGasUsed": "0x12b5cc",
      "logs": [],
      "logsBloom": "0x00000000000000000000000000000000000000000000000000000000000000000000000000000000000000000000000000000000000000000000000000000000000000000000000000000000000000000000000000000000000000000000000000000000000000000000000000000000000000000000000000000000000000000000000000000000000000000000000000000000000000000000000000000000000000000000000000000000000000000000000000000000000000000000000000000000000000000000000000000000000000000000000000000000000000000000000000000000000000000000000000000000000000000000000000000000",
      "type": "0x2",
      "transactionHash": "0x893d2516231214a9ab2fee9e12caec8913cbf64d059c7fa4a606e3e03d5b2fed",
      "transactionIndex": "0xa",
      "blockHash": "0xf0865f4943a4f07e07f868869df82a64ac42ec84327b8bb4d609fffd0bf1c4fc",
      "blockNumber": "0x1553da9",
      "gasUsed": "0x1a349",
      "effectiveGasPrice": "0x989790",
      "from": "0xdb90cdb64cff03f254e4015c4f705c3f3c834400",
      "to": "0xa5d80c0204bd414e802046b155cf492fc26c6e6b",
      "contractAddress": null,
      "l1BaseFeeScalar": "0x1db0",
      "l1BlobBaseFee": "0x787eb9bbc3",
      "l1BlobBaseFeeScalar": "0xd2730",
      "l1Fee": "0x28b648caeb35",
      "l1GasPrice": "0x2edc1f3b4",
      "l1GasUsed": "0x640"
    },
    {
      "status": "0x1",
      "cumulativeGasUsed": "0x16f3ab",
      "logs": [],
      "logsBloom": "0x00000000000000000000000000000000000000000000000000000000000000000000000000000000000000000000000000000000000000000000000000000000000000000000000000000000000000000000000000000000000000000000000000000000000000000000000000000000000000000000000000000000000000000000000000000000000000000000000000000000000000000000000000000000000000000000000000000000000000000000000000000000000000000000000000000000000000000000000000000000000000000000000000000000000000000000000000000000000000000000000000000000000000000000000000000000",
      "type": "0x2",
      "transactionHash": "0x984ad89da4289cbaa66b90dd2fcb135d31319c94e245f9eb7add923dd73d1209",
      "transactionIndex": "0xb",
      "blockHash": "0xf0865f4943a4f07e07f868869df82a64ac42ec84327b8bb4d609fffd0bf1c4fc",
      "blockNumber": "0x1553da9",
      "gasUsed": "0x43ddf",
      "effectiveGasPrice": "0x989790",
      "from": "0xdb90cdb64cff03f254e4015c4f705c3f3c834400",
      "to": "0x55323cabffc657fc88d0737d76f80958e9cfd67d",
      "contractAddress": null,
      "l1BaseFeeScalar": "0x1db0",
      "l1BlobBaseFee": "0x787eb9bbc3",
      "l1BlobBaseFeeScalar": "0xd2730",
      "l1Fee": "0x2b9f42414fe6",
      "l1GasPrice": "0x2edc1f3b4",
      "l1GasUsed": "0x6b2"
    },
    {
      "status": "0x1",
      "cumulativeGasUsed": "0x17bbf2",
      "logs": [
        {
          "address": "0x3bbea1538919d20c229b5d21d41cf2fcd17b13db",
          "topics": [
            "0xddf252ad1be2c89b69c2b068fc378daa952ba7f163c4a11628f55a4df523b3ef",
            "0x0000000000000000000000000000000000000000000000000000000000000000",
            "0x000000000000000000000000b486426f9e73422bd7bb9778a91d227a3588616f"
          ],
          "data": "0x0000000000000000000000000000000000000000000078c6afd2a77c4a360df2",
          "blockHash": "0xf0865f4943a4f07e07f868869df82a64ac42ec84327b8bb4d609fffd0bf1c4fc",
          "blockNumber": "0x1553da9",
          "transactionHash": "0x8dc923a339a57b8319fa745bc819fa1e2217dfa2ae699d8d3778b335c50947b2",
          "transactionIndex": "0xc",
          "logIndex": "0x6",
          "removed": false
        }
      ],
      "logsBloom": "0x00000000000000000000000000000000000000002020000000000000000000000000020000000000000000000000000000000000000000000000000000000000000000000000000000000008000000000000000000000040000000000000000000000000020000000001000000000800000000000000000000000010000000000000000000000000000000000000000000000400000000000000000000000000000000000000000000000000000000000000000000000000000000000000000000000002000000000000000000000000000000000000000000000000000020000000000000000000000000000000000000000000000000000000000000000000",
      "type": "0x2",
      "transactionHash": "0x8dc923a339a57b8319fa745bc819fa1e2217dfa2ae699d8d3778b335c50947b2",
      "transactionIndex": "0xc",
      "blockHash": "0xf0865f4943a4f07e07f868869df82a64ac42ec84327b8bb4d609fffd0bf1c4fc",
      "blockNumber": "0x1553da9",
      "gasUsed": "0xc847",
      "effectiveGasPrice": "0x989790",
      "from": "0xdb90cdb64cff03f254e4015c4f705c3f3c834400",
      "to": "0x3bbea1538919d20c229b5d21d41cf2fcd17b13db",
      "contractAddress": null,
      "l1BaseFeeScalar": "0x1db0",
      "l1BlobBaseFee": "0x787eb9bbc3",
      "l1BlobBaseFeeScalar": "0xd2730",
      "l1Fee": "0x28b648caeb35",
      "l1GasPrice": "0x2edc1f3b4",
      "l1GasUsed": "0x640"
    },
    {
      "status": "0x1",
      "cumulativeGasUsed": "0x1883f1",
      "logs": [
        {
          "address": "0xb2e4e4b2004208dc1b30208d5b6fab2b780dc290",
          "topics": [
            "0xddf252ad1be2c89b69c2b068fc378daa952ba7f163c4a11628f55a4df523b3ef",
            "0x0000000000000000000000000000000000000000000000000000000000000000",
            "0x000000000000000000000000b486426f9e73422bd7bb9778a91d227a3588616f"
          ],
          "data": "0x000000000000000000000000000000000000000000000000000000e8d4a51000",
          "blockHash": "0xf0865f4943a4f07e07f868869df82a64ac42ec84327b8bb4d609fffd0bf1c4fc",
          "blockNumber": "0x1553da9",
          "transactionHash": "0xef2e83f12cc75d67dad18dc5ae13638671e0687be8f197e4c10dd5fae5da7fc9",
          "transactionIndex": "0xd",
          "logIndex": "0x7",
          "removed": false
        }
      ],
      "logsBloom": "0x00000000000000000000000000000000000000000000000000000000000000000000000000000000000000000000000000000000000000000000000000000000000000000000000000000008000000000000000000000040000000000000000000000000020000000001000000000800000000000000020000000010000000000000000000000000000000000000000000000400000000000000000000000000002000000000000000000000000000000000000000000000000000000000000000000002000000000000000000000000000000000000000000000000000020000000000000000000000000000100000000000000000000000000000000000000",
      "type": "0x2",
      "transactionHash": "0xef2e83f12cc75d67dad18dc5ae13638671e0687be8f197e4c10dd5fae5da7fc9",
      "transactionIndex": "0xd",
      "blockHash": "0xf0865f4943a4f07e07f868869df82a64ac42ec84327b8bb4d609fffd0bf1c4fc",
      "blockNumber": "0x1553da9",
      "gasUsed": "0xc7ff",
      "effectiveGasPrice": "0x989790",
      "from": "0xdb90cdb64cff03f254e4015c4f705c3f3c834400",
      "to": "0xb2e4e4b2004208dc1b30208d5b6fab2b780dc290",
      "contractAddress": null,
      "l1BaseFeeScalar": "0x1db0",
      "l1BlobBaseFee": "0x787eb9bbc3",
      "l1BlobBaseFeeScalar": "0xd2730",
      "l1Fee": "0x28b648caeb35",
      "l1GasPrice": "0x2edc1f3b4",
      "l1GasUsed": "0x640"
    },
    {
      "status": "0x1",
      "cumulativeGasUsed": "0x1a273a",
      "logs": [],
      "logsBloom": "0x00000000000000000000000000000000000000000000000000000000000000000000000000000000000000000000000000000000000000000000000000000000000000000000000000000000000000000000000000000000000000000000000000000000000000000000000000000000000000000000000000000000000000000000000000000000000000000000000000000000000000000000000000000000000000000000000000000000000000000000000000000000000000000000000000000000000000000000000000000000000000000000000000000000000000000000000000000000000000000000000000000000000000000000000000000000",
      "type": "0x2",
      "transactionHash": "0xa80590bba11b3fd2ba3c336d09129f2f4afef88229efa94054028598740d7afa",
      "transactionIndex": "0xe",
      "blockHash": "0xf0865f4943a4f07e07f868869df82a64ac42ec84327b8bb4d609fffd0bf1c4fc",
      "blockNumber": "0x1553da9",
      "gasUsed": "0x1a349",
      "effectiveGasPrice": "0x989790",
      "from": "0xdb90cdb64cff03f254e4015c4f705c3f3c834400",
      "to": "0xb486426f9e73422bd7bb9778a91d227a3588616f",
      "contractAddress": null,
      "l1BaseFeeScalar": "0x1db0",
      "l1BlobBaseFee": "0x787eb9bbc3",
      "l1BlobBaseFeeScalar": "0xd2730",
      "l1Fee": "0x28b648caeb35",
      "l1GasPrice": "0x2edc1f3b4",
      "l1GasUsed": "0x640"
    }
  ],
  "libraries": [],
  "pending": [],
  "returns": {},
  "timestamp": 1736529743,
  "chain": 11155420,
  "commit": "ddd6c6f"
}